{
  "contractName": "LicenseToken",
  "abi": [
    {
      "inputs": [],
      "stateMutability": "nonpayable",
      "type": "constructor"
    },
    {
      "anonymous": false,
      "inputs": [
        {
          "indexed": false,
          "internalType": "address",
          "name": "owner",
          "type": "address"
        },
        {
          "indexed": false,
          "internalType": "address",
          "name": "approved",
          "type": "address"
        },
        {
          "indexed": false,
          "internalType": "uint256",
          "name": "tokenId",
          "type": "uint256"
        }
      ],
      "name": "Approval",
      "type": "event"
    },
    {
      "anonymous": false,
      "inputs": [
        {
          "indexed": false,
          "internalType": "address",
          "name": "account",
          "type": "address"
        },
        {
          "indexed": false,
          "internalType": "uint256",
          "name": "tokenId",
          "type": "uint256"
        }
      ],
      "name": "LicenseGiven",
      "type": "event"
    },
    {
      "anonymous": false,
      "inputs": [
        {
          "indexed": false,
          "internalType": "address",
          "name": "from",
          "type": "address"
        },
        {
          "indexed": false,
          "internalType": "address",
          "name": "to",
          "type": "address"
        },
        {
          "indexed": false,
          "internalType": "uint256",
          "name": "tokenId",
          "type": "uint256"
        }
      ],
      "name": "Transfer",
      "type": "event"
    },
    {
      "inputs": [
        {
          "internalType": "uint256",
          "name": "",
          "type": "uint256"
        }
      ],
      "name": "tokenIndexToApproved",
      "outputs": [
        {
          "internalType": "address",
          "name": "",
          "type": "address"
        }
      ],
      "stateMutability": "view",
      "type": "function"
    },
    {
      "inputs": [
        {
          "internalType": "uint256",
          "name": "",
          "type": "uint256"
        }
      ],
      "name": "tokenIndexToOwner",
      "outputs": [
        {
          "internalType": "address",
          "name": "",
          "type": "address"
        }
      ],
      "stateMutability": "view",
      "type": "function"
    },
    {
      "inputs": [
        {
          "internalType": "address",
          "name": "newOwner",
          "type": "address"
        }
      ],
      "name": "transferOwnership",
      "outputs": [],
      "stateMutability": "nonpayable",
      "type": "function"
    },
    {
      "inputs": [],
      "name": "totalSupply",
      "outputs": [
        {
          "internalType": "uint256",
          "name": "total",
          "type": "uint256"
        }
      ],
      "stateMutability": "view",
      "type": "function"
    },
    {
      "inputs": [
        {
          "internalType": "address",
          "name": "_account",
          "type": "address"
        }
      ],
      "name": "balanceOf",
      "outputs": [
        {
          "internalType": "uint256",
          "name": "balance",
          "type": "uint256"
        }
      ],
      "stateMutability": "view",
      "type": "function"
    },
    {
      "inputs": [
        {
          "internalType": "uint256",
          "name": "_tokenId",
          "type": "uint256"
        }
      ],
      "name": "ownerOf",
      "outputs": [
        {
          "internalType": "address",
          "name": "owner",
          "type": "address"
        }
      ],
      "stateMutability": "view",
      "type": "function"
    },
    {
      "inputs": [
        {
          "internalType": "address",
          "name": "_from",
          "type": "address"
        },
        {
          "internalType": "address",
          "name": "_to",
          "type": "address"
        },
        {
          "internalType": "uint256",
          "name": "_tokenId",
          "type": "uint256"
        }
      ],
      "name": "transferFrom",
      "outputs": [],
      "stateMutability": "nonpayable",
      "type": "function"
    },
    {
      "inputs": [
        {
          "internalType": "address",
          "name": "_to",
          "type": "address"
        },
        {
          "internalType": "uint256",
          "name": "_tokenId",
          "type": "uint256"
        }
      ],
      "name": "approve",
      "outputs": [],
      "stateMutability": "nonpayable",
      "type": "function"
    },
    {
      "inputs": [
        {
          "internalType": "address",
          "name": "_from",
          "type": "address"
        },
        {
          "internalType": "address",
          "name": "_to",
          "type": "address"
        },
        {
          "internalType": "uint256",
          "name": "_tokenId",
          "type": "uint256"
        }
      ],
      "name": "safeTransferFrom",
      "outputs": [],
      "stateMutability": "nonpayable",
      "type": "function"
    },
    {
      "inputs": [
        {
          "internalType": "address",
          "name": "_from",
          "type": "address"
        },
        {
          "internalType": "address",
          "name": "_to",
          "type": "address"
        },
        {
          "internalType": "uint256",
          "name": "_tokenId",
          "type": "uint256"
        },
        {
          "internalType": "bytes",
          "name": "data",
          "type": "bytes"
        }
      ],
      "name": "safeTransferFrom",
      "outputs": [],
      "stateMutability": "nonpayable",
      "type": "function"
    },
    {
      "inputs": [
        {
          "internalType": "address",
          "name": "_operator",
          "type": "address"
        },
        {
          "internalType": "bool",
          "name": "_approved",
          "type": "bool"
        }
      ],
      "name": "setApprovalForAll",
      "outputs": [],
      "stateMutability": "pure",
      "type": "function"
    },
    {
      "inputs": [
        {
          "internalType": "uint256",
          "name": "_tokenId",
          "type": "uint256"
        }
      ],
      "name": "getApproved",
      "outputs": [
        {
          "internalType": "address",
          "name": "",
          "type": "address"
        }
      ],
      "stateMutability": "pure",
      "type": "function"
    },
    {
      "inputs": [
        {
          "internalType": "address",
          "name": "_owner",
          "type": "address"
        },
        {
          "internalType": "address",
          "name": "_operator",
          "type": "address"
        }
      ],
      "name": "isApprovedForAll",
      "outputs": [
        {
          "internalType": "bool",
          "name": "",
          "type": "bool"
        }
      ],
      "stateMutability": "pure",
      "type": "function"
    },
    {
      "inputs": [
        {
          "internalType": "address",
          "name": "_account",
          "type": "address"
        },
        {
          "internalType": "uint256",
          "name": "_type",
          "type": "uint256"
        }
      ],
      "name": "giveLicense",
      "outputs": [],
      "stateMutability": "nonpayable",
      "type": "function"
    },
    {
      "inputs": [
        {
          "internalType": "uint256",
          "name": "_tokenId",
          "type": "uint256"
        },
        {
          "internalType": "string",
          "name": "_deviceId",
          "type": "string"
        }
      ],
      "name": "activate",
      "outputs": [],
      "stateMutability": "nonpayable",
      "type": "function"
    },
    {
      "inputs": [
        {
          "internalType": "address",
          "name": "_account",
          "type": "address"
        },
        {
          "internalType": "uint256",
          "name": "_tokenId",
          "type": "uint256"
        }
      ],
      "name": "burn",
      "outputs": [],
      "stateMutability": "nonpayable",
      "type": "function"
    },
    {
      "inputs": [
        {
          "internalType": "address",
          "name": "_account",
          "type": "address"
        },
        {
          "internalType": "uint256",
          "name": "_tokenId",
          "type": "uint256"
        }
      ],
      "name": "isLicenseActive",
      "outputs": [
        {
          "internalType": "uint256",
          "name": "state",
          "type": "uint256"
        }
      ],
      "stateMutability": "view",
      "type": "function"
    },
    {
      "inputs": [
        {
          "internalType": "address",
          "name": "_account",
          "type": "address"
        },
        {
          "internalType": "uint256",
          "name": "_tokenId",
          "type": "uint256"
        }
      ],
      "name": "handleExpiredLicense",
      "outputs": [],
      "stateMutability": "nonpayable",
      "type": "function"
    }
  ],
  "bytecode": "0x608060405234801561001057600080fd5b50336000806101000a81548173ffffffffffffffffffffffffffffffffffffffff021916908373ffffffffffffffffffffffffffffffffffffffff160217905550611d7c806100606000396000f3fe608060405234801561001057600080fd5b50600436106101165760003560e01c80636352211e116100a2578063a8bd9c3211610071578063a8bd9c32146102ed578063b88d4fde1461031d578063e1721ec814610339578063e985e9c514610355578063f2fde38b1461038557610116565b80636352211e1461025557806370a08231146102855780639dc29fac146102b5578063a22cb465146102d157610116565b806321ea02f9116100e957806321ea02f9146101b557806323b872dd146101d157806342842e0e146101ed57806348c20f3d146102095780635690d0d91461023957610116565b8063081812fc1461011b578063095ea7b31461014b57806318160ddd146101675780631d36e06c14610185575b600080fd5b6101356004803603810190610130919061132e565b6103a1565b604051610142919061139c565b60405180910390f35b610165600480360381019061016091906113e3565b6103a8565b005b61016f6104b2565b60405161017c9190611432565b60405180910390f35b61019f600480360381019061019a919061132e565b6104bf565b6040516101ac919061139c565b60405180910390f35b6101cf60048036038101906101ca91906113e3565b6104f2565b005b6101eb60048036038101906101e6919061144d565b610596565b005b6102076004803603810190610202919061144d565b610682565b005b610223600480360381019061021e91906113e3565b610687565b6040516102309190611432565b60405180910390f35b610253600480360381019061024e91906115e6565b6108bd565b005b61026f600480360381019061026a919061132e565b6109e9565b60405161027c919061139c565b60405180910390f35b61029f600480360381019061029a9190611642565b610a5f565b6040516102ac9190611432565b60405180910390f35b6102cf60048036038101906102ca91906113e3565b610aa8565b005b6102eb60048036038101906102e691906116a7565b610c9d565b005b6103076004803603810190610302919061132e565b610ca1565b604051610314919061139c565b60405180910390f35b61033760048036038101906103329190611788565b610cd4565b005b610353600480360381019061034e91906113e3565b610cda565b005b61036f600480360381019061036a919061180b565b610e20565b60405161037c919061185a565b60405180910390f35b61039f600480360381019061039a9190611642565b610e28565b005b6000919050565b6103b23382610ec3565b6103bb57600080fd5b816004600083815260200190815260200160002060006101000a81548173ffffffffffffffffffffffffffffffffffffffff021916908373ffffffffffffffffffffffffffffffffffffffff1602179055507f8c5be1e5ebec7d5bd14f71427d1e84f3dd0314c0f7b2291e5b200ac8c7c3b9256002600083815260200190815260200160002060009054906101000a900473ffffffffffffffffffffffffffffffffffffffff166004600084815260200190815260200160002060009054906101000a900473ffffffffffffffffffffffffffffffffffffffff16836040516104a693929190611875565b60405180910390a15050565b6000600180549050905090565b60026020528060005260406000206000915054906101000a900473ffffffffffffffffffffffffffffffffffffffff1681565b60008054906101000a900473ffffffffffffffffffffffffffffffffffffffff1673ffffffffffffffffffffffffffffffffffffffff163373ffffffffffffffffffffffffffffffffffffffff161461054a57600080fd5b60006105568383610f2f565b90507f438c1191298866ed823d6b9068bc5bdcdea4883fb9ad0584b7c51354efa3c44e83826040516105899291906118ac565b60405180910390a1505050565b60008054906101000a900473ffffffffffffffffffffffffffffffffffffffff1673ffffffffffffffffffffffffffffffffffffffff163373ffffffffffffffffffffffffffffffffffffffff16146105ee57600080fd5b600073ffffffffffffffffffffffffffffffffffffffff168273ffffffffffffffffffffffffffffffffffffffff160361062757600080fd5b3073ffffffffffffffffffffffffffffffffffffffff168273ffffffffffffffffffffffffffffffffffffffff160361065f57600080fd5b6106698382610ec3565b61067257600080fd5b61067d8383836110e0565b505050565b505050565b60008273ffffffffffffffffffffffffffffffffffffffff166002600084815260200190815260200160002060009054906101000a900473ffffffffffffffffffffffffffffffffffffffff1673ffffffffffffffffffffffffffffffffffffffff16146106f457600080fd5b60006001838154811061070a576107096118d5565b5b90600052602060002090600502016040518060a00160405290816000820160009054906101000a900460ff16600181111561074857610747611904565b5b600181111561075a57610759611904565b5b815260200160018201548152602001600282015481526020016003820160009054906101000a900460ff16600281111561079757610796611904565b5b60028111156107a9576107a8611904565b5b81526020016004820180546107bd90611962565b80601f01602080910402602001604051908101604052809291908181526020018280546107e990611962565b80156108365780601f1061080b57610100808354040283529160200191610836565b820191906000526020600020905b81548152906001019060200180831161081957829003601f168201915b505050505081525050905042816040015110801561087c57506000600281111561086357610862611904565b5b8160600151600281111561087a57610879611904565b5b145b1561089c5760028081111561089457610893611904565b5b9150506108b7565b806060015160028111156108b3576108b2611904565b5b9150505b92915050565b60008054906101000a900473ffffffffffffffffffffffffffffffffffffffff1673ffffffffffffffffffffffffffffffffffffffff163373ffffffffffffffffffffffffffffffffffffffff161461091557600080fd5b60006001838154811061092b5761092a6118d5565b5b90600052602060002090600502019050600081600101540361094c57600080fd5b600160028111156109605761095f611904565b5b8160030160009054906101000a900460ff16600281111561098457610983611904565b5b1461098e57600080fd5b60008160030160006101000a81548160ff021916908360028111156109b6576109b5611904565b5b021790555062278d00426109ca91906119c2565b8160020181905550818160040190816109e39190611bcf565b50505050565b60006002600083815260200190815260200160002060009054906101000a900473ffffffffffffffffffffffffffffffffffffffff169050600073ffffffffffffffffffffffffffffffffffffffff168173ffffffffffffffffffffffffffffffffffffffff1603610a5a57600080fd5b919050565b6000600360008373ffffffffffffffffffffffffffffffffffffffff1673ffffffffffffffffffffffffffffffffffffffff168152602001908152602001600020549050919050565b60008054906101000a900473ffffffffffffffffffffffffffffffffffffffff1673ffffffffffffffffffffffffffffffffffffffff163373ffffffffffffffffffffffffffffffffffffffff1614610b0057600080fd5b8173ffffffffffffffffffffffffffffffffffffffff166002600083815260200190815260200160002060009054906101000a900473ffffffffffffffffffffffffffffffffffffffff1673ffffffffffffffffffffffffffffffffffffffff1614610b6b57600080fd5b600360008373ffffffffffffffffffffffffffffffffffffffff1673ffffffffffffffffffffffffffffffffffffffff1681526020019081526020016000206000815480929190610bbb90611ca1565b91905055506002600082815260200190815260200160002060006101000a81549073ffffffffffffffffffffffffffffffffffffffff021916905560018181548110610c0a57610c096118d5565b5b9060005260206000209060050201600080820160006101000a81549060ff0219169055600182016000905560028201600090556003820160006101000a81549060ff0219169055600482016000610c619190611287565b50506004600082815260200190815260200160002060006101000a81549073ffffffffffffffffffffffffffffffffffffffff02191690555050565b5050565b60046020528060005260406000206000915054906101000a900473ffffffffffffffffffffffffffffffffffffffff1681565b50505050565b60008054906101000a900473ffffffffffffffffffffffffffffffffffffffff1673ffffffffffffffffffffffffffffffffffffffff163373ffffffffffffffffffffffffffffffffffffffff1614610d3257600080fd5b8173ffffffffffffffffffffffffffffffffffffffff166002600083815260200190815260200160002060009054906101000a900473ffffffffffffffffffffffffffffffffffffffff1673ffffffffffffffffffffffffffffffffffffffff1614610d9d57600080fd5b600060018281548110610db357610db26118d5565b5b90600052602060002090600502019050428160020154108015610e0b575060006002811115610de557610de4611904565b5b8160030160009054906101000a900460ff166002811115610e0957610e08611904565b5b145b15610e1b57610e1a8383610aa8565b5b505050565b600092915050565b60008054906101000a900473ffffffffffffffffffffffffffffffffffffffff1673ffffffffffffffffffffffffffffffffffffffff163373ffffffffffffffffffffffffffffffffffffffff1614610e8057600080fd5b806000806101000a81548173ffffffffffffffffffffffffffffffffffffffff021916908373ffffffffffffffffffffffffffffffffffffffff16021790555050565b60008273ffffffffffffffffffffffffffffffffffffffff166002600084815260200190815260200160002060009054906101000a900473ffffffffffffffffffffffffffffffffffffffff1673ffffffffffffffffffffffffffffffffffffffff1614905092915050565b60008060009054906101000a900473ffffffffffffffffffffffffffffffffffffffff1673ffffffffffffffffffffffffffffffffffffffff163373ffffffffffffffffffffffffffffffffffffffff1614610f8a57600080fd5b60006040518060a00160405280846001811115610faa57610fa9611904565b5b6001811115610fbc57610fbb611904565b5b81526020014281526020016000815260200160016002811115610fe257610fe1611904565b5b8152602001604051806020016040528060008152508152509050600181908060018154018082558091505060019003906000526020600020906005020160009091909190915060008201518160000160006101000a81548160ff0219169083600181111561105357611052611904565b5b0217905550602082015181600101556040820151816002015560608201518160030160006101000a81548160ff0219169083600281111561109757611096611904565b5b021790555060808201518160040190816110b19190611bcf565b5050506000600180805490506110c79190611cca565b90506110d5600086836110e0565b809250505092915050565b600360008373ffffffffffffffffffffffffffffffffffffffff1673ffffffffffffffffffffffffffffffffffffffff168152602001908152602001600020600081548092919061113090611cfe565b9190505550816002600083815260200190815260200160002060006101000a81548173ffffffffffffffffffffffffffffffffffffffff021916908373ffffffffffffffffffffffffffffffffffffffff160217905550600073ffffffffffffffffffffffffffffffffffffffff168373ffffffffffffffffffffffffffffffffffffffff161461124757600360008473ffffffffffffffffffffffffffffffffffffffff1673ffffffffffffffffffffffffffffffffffffffff168152602001908152602001600020600081548092919061120b90611ca1565b91905055506004600082815260200190815260200160002060006101000a81549073ffffffffffffffffffffffffffffffffffffffff02191690555b7fddf252ad1be2c89b69c2b068fc378daa952ba7f163c4a11628f55a4df523b3ef83838360405161127a93929190611875565b60405180910390a1505050565b50805461129390611962565b6000825580601f106112a557506112c4565b601f0160209004906000526020600020908101906112c391906112c7565b5b50565b5b808211156112e05760008160009055506001016112c8565b5090565b6000604051905090565b600080fd5b600080fd5b6000819050919050565b61130b816112f8565b811461131657600080fd5b50565b60008135905061132881611302565b92915050565b600060208284031215611344576113436112ee565b5b600061135284828501611319565b91505092915050565b600073ffffffffffffffffffffffffffffffffffffffff82169050919050565b60006113868261135b565b9050919050565b6113968161137b565b82525050565b60006020820190506113b1600083018461138d565b92915050565b6113c08161137b565b81146113cb57600080fd5b50565b6000813590506113dd816113b7565b92915050565b600080604083850312156113fa576113f96112ee565b5b6000611408858286016113ce565b925050602061141985828601611319565b9150509250929050565b61142c816112f8565b82525050565b60006020820190506114476000830184611423565b92915050565b600080600060608486031215611466576114656112ee565b5b6000611474868287016113ce565b9350506020611485868287016113ce565b925050604061149686828701611319565b9150509250925092565b600080fd5b600080fd5b6000601f19601f8301169050919050565b7f4e487b7100000000000000000000000000000000000000000000000000000000600052604160045260246000fd5b6114f3826114aa565b810181811067ffffffffffffffff82111715611512576115116114bb565b5b80604052505050565b60006115256112e4565b905061153182826114ea565b919050565b600067ffffffffffffffff821115611551576115506114bb565b5b61155a826114aa565b9050602081019050919050565b82818337600083830152505050565b600061158961158484611536565b61151b565b9050828152602081018484840111156115a5576115a46114a5565b5b6115b0848285611567565b509392505050565b600082601f8301126115cd576115cc6114a0565b5b81356115dd848260208601611576565b91505092915050565b600080604083850312156115fd576115fc6112ee565b5b600061160b85828601611319565b925050602083013567ffffffffffffffff81111561162c5761162b6112f3565b5b611638858286016115b8565b9150509250929050565b600060208284031215611658576116576112ee565b5b6000611666848285016113ce565b91505092915050565b60008115159050919050565b6116848161166f565b811461168f57600080fd5b50565b6000813590506116a18161167b565b92915050565b600080604083850312156116be576116bd6112ee565b5b60006116cc858286016113ce565b92505060206116dd85828601611692565b9150509250929050565b600067ffffffffffffffff821115611702576117016114bb565b5b61170b826114aa565b9050602081019050919050565b600061172b611726846116e7565b61151b565b905082815260208101848484011115611747576117466114a5565b5b611752848285611567565b509392505050565b600082601f83011261176f5761176e6114a0565b5b813561177f848260208601611718565b91505092915050565b600080600080608085870312156117a2576117a16112ee565b5b60006117b0878288016113ce565b94505060206117c1878288016113ce565b93505060406117d287828801611319565b925050606085013567ffffffffffffffff8111156117f3576117f26112f3565b5b6117ff8782880161175a565b91505092959194509250565b60008060408385031215611822576118216112ee565b5b6000611830858286016113ce565b9250506020611841858286016113ce565b9150509250929050565b6118548161166f565b82525050565b600060208201905061186f600083018461184b565b92915050565b600060608201905061188a600083018661138d565b611897602083018561138d565b6118a46040830184611423565b949350505050565b60006040820190506118c1600083018561138d565b6118ce6020830184611423565b9392505050565b7f4e487b7100000000000000000000000000000000000000000000000000000000600052603260045260246000fd5b7f4e487b7100000000000000000000000000000000000000000000000000000000600052602160045260246000fd5b7f4e487b7100000000000000000000000000000000000000000000000000000000600052602260045260246000fd5b6000600282049050600182168061197a57607f821691505b60208210810361198d5761198c611933565b5b50919050565b7f4e487b7100000000000000000000000000000000000000000000000000000000600052601160045260246000fd5b60006119cd826112f8565b91506119d8836112f8565b9250827fffffffffffffffffffffffffffffffffffffffffffffffffffffffffffffffff03821115611a0d57611a0c611993565b5b828201905092915050565b600081519050919050565b60008190508160005260206000209050919050565b60006020601f8301049050919050565b600082821b905092915050565b600060088302611a857fffffffffffffffffffffffffffffffffffffffffffffffffffffffffffffffff82611a48565b611a8f8683611a48565b95508019841693508086168417925050509392505050565b6000819050919050565b6000611acc611ac7611ac2846112f8565b611aa7565b6112f8565b9050919050565b6000819050919050565b611ae683611ab1565b611afa611af282611ad3565b848454611a55565b825550505050565b600090565b611b0f611b02565b611b1a818484611add565b505050565b5b81811015611b3e57611b33600082611b07565b600181019050611b20565b5050565b601f821115611b8357611b5481611a23565b611b5d84611a38565b81016020851015611b6c578190505b611b80611b7885611a38565b830182611b1f565b50505b505050565b600082821c905092915050565b6000611ba660001984600802611b88565b1980831691505092915050565b6000611bbf8383611b95565b9150826002028217905092915050565b611bd882611a18565b67ffffffffffffffff811115611bf157611bf06114bb565b5b611bfb8254611962565b611c06828285611b42565b600060209050601f831160018114611c395760008415611c27578287015190505b611c318582611bb3565b865550611c99565b601f198416611c4786611a23565b60005b82811015611c6f57848901518255600182019150602085019450602081019050611c4a565b86831015611c8c5784890151611c88601f891682611b95565b8355505b6001600288020188555050505b505050505050565b6000611cac826112f8565b915060008203611cbf57611cbe611993565b5b600182039050919050565b6000611cd5826112f8565b9150611ce0836112f8565b925082821015611cf357611cf2611993565b5b828203905092915050565b6000611d09826112f8565b91507fffffffffffffffffffffffffffffffffffffffffffffffffffffffffffffffff8203611d3b57611d3a611993565b5b60018201905091905056fea2646970667358221220788e1b3c261d7eaebbb0dc603550a1247095ca0c79ea2e2073d1051ad349439764736f6c634300080f0033",
  "immutableReferences": {},
  "source": "pragma solidity ^0.8.7;\r\n \r\ncontract owned {\r\n  address owner;\r\n   \r\n  constructor() {\r\n    owner = msg.sender;\r\n  }\r\n   \r\n  modifier onlyOwner {\r\n    require(msg.sender == owner);\r\n    _;\r\n  }\r\n   \r\n  function transferOwnership(address newOwner) onlyOwner  public {\r\n    owner = newOwner;\r\n  }\r\n}\r\n   \r\ncontract LicenseToken is owned {\r\n  enum LicenseType {WIN, MAC}\r\n  enum LicenseState {ACTIVE, INACTIVE, EXPIRED}\r\n   \r\n  uint constant LICENSE_LIFE_TIME = 30 days;\r\n   \r\n  struct LicenseInfo {\r\n    LicenseType licenseType;\r\n    uint registeredOn;\r\n    uint expiresOn;\r\n    LicenseState state;\r\n    string deviceId;\r\n  }\r\n   \r\n  LicenseInfo[] tokens;\r\n   \r\n  mapping (uint256 => address) public tokenIndexToOwner;\r\n  mapping (address => uint256) ownershipTokenCount;\r\n  mapping (uint256 => address) public tokenIndexToApproved;\r\n   \r\n  event LicenseGiven(address account, uint256 tokenId);\r\n  event Transfer(address from, address to, uint256 tokenId);\r\n  event Approval(address owner, address approved, uint256 tokenId);\r\n   \r\n  constructor()  {\r\n  }\r\n   \r\n  // ERC-721 functions\r\n  function totalSupply() public view returns (uint256 total) {\r\n    return tokens.length;\r\n  }\r\n   \r\n  function balanceOf(address _account) public view returns (uint256 balance) {\r\n     return ownershipTokenCount[_account];\r\n  }\r\n   \r\n  function ownerOf(uint256 _tokenId) public view returns (address owner) {\r\n    owner = tokenIndexToOwner[_tokenId];\r\n    require(owner != address(0));\r\n   \r\n    return owner;\r\n  }\r\n   \r\n  function transferFrom(address _from, address _to, uint256 _tokenId) onlyOwner public {\r\n    require(_to != address(0));\r\n    require(_to != address(this));\r\n    require(_owns(_from, _tokenId));\r\n   \r\n    _transfer(_from, _to, _tokenId);\r\n  }\r\n   \r\n  function approve(address _to, uint256 _tokenId) public {\r\n    require(_owns(msg.sender, _tokenId));\r\n    tokenIndexToApproved[_tokenId] = _to;\r\n    emit Approval(tokenIndexToOwner[_tokenId], tokenIndexToApproved[_tokenId], _tokenId);\r\n  }\r\n   \r\n  function safeTransferFrom(address _from, address _to, uint256 _tokenId) public {\r\n    // method is not implemented because it is not needed for licensing logic\r\n  }\r\n   \r\n  function safeTransferFrom(address _from, address _to, uint256 _tokenId, bytes memory data) public {\r\n    // method is not implemented because it is not needed for licensing logic\r\n  }\r\n   \r\n  function setApprovalForAll(address _operator, bool _approved) public  pure{\r\n    // method is not implemented because it is not needed for licensing logic\r\n  }\r\n   \r\n  function getApproved(uint256 _tokenId) public pure returns (address) {\r\n    // method is not implemented because it is not needed for licensing logic\r\n    return address(0);\r\n  }\r\n   \r\n  function isApprovedForAll(address _owner, address _operator) public pure returns (bool) {\r\n    // method is not implemented because it is not needed for licensing logic\r\n    return false;\r\n  }\r\n   \r\n  // licensing logic\r\n  function giveLicense(address _account, uint _type) onlyOwner public {\r\n    uint256 tokenId = _mint(_account, _type);\r\n    emit LicenseGiven(_account, tokenId);\r\n  }\r\n   \r\n  function activate(uint _tokenId, string memory _deviceId) onlyOwner public {\r\n    LicenseInfo storage token = tokens[_tokenId];\r\n    require(token.registeredOn != 0);\r\n    require(token.state == LicenseState.INACTIVE);\r\n   \r\n    token.state = LicenseState.ACTIVE;\r\n    token.expiresOn = block.timestamp + LICENSE_LIFE_TIME;\r\n    token.deviceId = _deviceId;\r\n  }\r\n   \r\n  function burn(address _account, uint _tokenId) onlyOwner public {\r\n    require(tokenIndexToOwner[_tokenId] == _account);\r\n   \r\n    ownershipTokenCount[_account]--;\r\n    delete tokenIndexToOwner[_tokenId];\r\n    delete tokens[_tokenId];\r\n    delete tokenIndexToApproved[_tokenId];\r\n  }\r\n   \r\n  function isLicenseActive(address _account, uint256 _tokenId) public view returns (uint state){\r\n    require(tokenIndexToOwner[_tokenId] == _account);\r\n   \r\n    LicenseInfo memory token = tokens[_tokenId];\r\n    if (token.expiresOn < block.timestamp && token.state == LicenseState.ACTIVE) {\r\n       return uint(LicenseState.EXPIRED);\r\n    }\r\n   \r\n    return uint(token.state);\r\n  }\r\n   \r\n  function handleExpiredLicense(address _account, uint256 _tokenId) onlyOwner public {\r\n    require(tokenIndexToOwner[_tokenId] == _account);\r\n   \r\n    LicenseInfo storage token = tokens[_tokenId];\r\n    if (token.expiresOn < block.timestamp && token.state == LicenseState.ACTIVE) {\r\n       burn(_account, _tokenId);\r\n    }\r\n  }\r\n   \r\n  // internal methods\r\n  function _owns(address _claimant, uint256 _tokenId) internal view returns (bool) {\r\n    return tokenIndexToOwner[_tokenId] == _claimant;\r\n  }\r\n   \r\n  function _mint(address _account, uint _type) onlyOwner internal returns (uint256 tokenId) {\r\n    // create new token\r\n    LicenseInfo memory token = LicenseInfo({\r\n        licenseType: LicenseType(_type),\r\n        state: LicenseState.INACTIVE,\r\n        registeredOn: block.timestamp,\r\n        expiresOn: 0,\r\n        deviceId: \"\"\r\n    });\r\n    tokens.push(token);\r\n    uint id= tokens.length - 1;\r\n    _transfer(address(0), _account, id);\r\n    return id;\r\n  }\r\n   \r\n  function _transfer(address _from, address _to, uint256 _tokenId) internal {\r\n   ownershipTokenCount[_to]++;\r\n   tokenIndexToOwner[_tokenId] = _to;\r\n   \r\n   if (_from != address(0)) {\r\n     ownershipTokenCount[_from]--;\r\n     delete tokenIndexToApproved[_tokenId];\r\n   }\r\n   emit Transfer(_from, _to, _tokenId);\r\n  }\r\n}",
  "sourcePath": "C:\\Users\\Admin\\Documents\\Courses\\CNM\\2022\\ApplicationLicensing\\ApplicationLicensingWithSmartContract\\smart_contract\\contracts\\LicenseToken.sol",
  "compiler": {
    "name": "solc",
    "version": "0.8.15+commit.e14f2714.Emscripten.clang"
  },
  "schemaVersion": "3.4.8",
  "updatedAt": "2022-07-02T10:05:44.126Z",
  "devdoc": {
    "kind": "dev",
    "methods": {},
    "version": 1
  },
  "userdoc": {
    "kind": "user",
    "methods": {},
    "version": 1
  }
}