{
  "contractName": "LicenseToken",
  "abi": [
    {
      "inputs": [],
      "stateMutability": "nonpayable",
      "type": "constructor"
    },
    {
      "anonymous": false,
      "inputs": [
        {
          "indexed": true,
          "internalType": "address",
          "name": "owner",
          "type": "address"
        },
        {
          "indexed": true,
          "internalType": "address",
          "name": "approved",
          "type": "address"
        },
        {
          "indexed": true,
          "internalType": "uint256",
          "name": "tokenId",
          "type": "uint256"
        }
      ],
      "name": "Approval",
      "type": "event"
    },
    {
      "anonymous": false,
      "inputs": [
        {
          "indexed": true,
          "internalType": "address",
          "name": "owner",
          "type": "address"
        },
        {
          "indexed": true,
          "internalType": "address",
          "name": "operator",
          "type": "address"
        },
        {
          "indexed": false,
          "internalType": "bool",
          "name": "approved",
          "type": "bool"
        }
      ],
      "name": "ApprovalForAll",
      "type": "event"
    },
    {
      "anonymous": false,
      "inputs": [
        {
          "indexed": false,
          "internalType": "address",
          "name": "_account",
          "type": "address"
        },
        {
          "components": [
            {
              "internalType": "enum LicenseToken.LicenseType",
              "name": "licenseType",
              "type": "uint8"
            },
            {
              "internalType": "uint256",
              "name": "registeredOn",
              "type": "uint256"
            },
            {
              "internalType": "uint256",
              "name": "expiresOn",
              "type": "uint256"
            },
            {
              "internalType": "enum LicenseToken.LicenseState",
              "name": "state",
              "type": "uint8"
            },
            {
              "internalType": "string",
              "name": "deviceId",
              "type": "string"
            }
          ],
          "indexed": false,
          "internalType": "struct LicenseToken.LicenseInfo[]",
          "name": "tokensOfAccount",
          "type": "tuple[]"
        },
        {
          "indexed": false,
          "internalType": "uint256[]",
          "name": "tokenIdsOfAccount",
          "type": "uint256[]"
        }
      ],
      "name": "GetAllTokensOfAccount",
      "type": "event"
    },
    {
      "anonymous": false,
      "inputs": [
        {
          "indexed": false,
          "internalType": "address",
          "name": "account",
          "type": "address"
        },
        {
          "indexed": false,
          "internalType": "uint256",
          "name": "tokenId",
          "type": "uint256"
        },
        {
          "indexed": false,
          "internalType": "uint256",
          "name": "state",
          "type": "uint256"
        },
        {
          "indexed": false,
          "internalType": "uint256",
          "name": "expiresOn",
          "type": "uint256"
        },
        {
          "indexed": false,
          "internalType": "string",
          "name": "deviceId",
          "type": "string"
        }
      ],
      "name": "LicenseActivate",
      "type": "event"
    },
    {
      "anonymous": false,
      "inputs": [
        {
          "indexed": false,
          "internalType": "address",
          "name": "account",
          "type": "address"
        },
        {
          "indexed": false,
          "internalType": "uint256",
          "name": "tokenId",
          "type": "uint256"
        },
        {
          "indexed": false,
          "internalType": "uint256",
          "name": "registeredOn",
          "type": "uint256"
        }
      ],
      "name": "LicenseGiven",
      "type": "event"
    },
    {
      "anonymous": false,
      "inputs": [
        {
          "indexed": false,
          "internalType": "address",
          "name": "_account",
          "type": "address"
        },
        {
          "indexed": false,
          "internalType": "uint256",
          "name": "_tokenId",
          "type": "uint256"
        },
        {
          "indexed": false,
          "internalType": "uint256",
          "name": "state",
          "type": "uint256"
        },
        {
          "indexed": false,
          "internalType": "uint256",
          "name": "expiresOn",
          "type": "uint256"
        },
        {
          "indexed": false,
          "internalType": "string",
          "name": "deviceId",
          "type": "string"
        }
      ],
      "name": "LicenseRenewal",
      "type": "event"
    },
    {
      "anonymous": false,
      "inputs": [
        {
          "indexed": true,
          "internalType": "address",
          "name": "from",
          "type": "address"
        },
        {
          "indexed": true,
          "internalType": "address",
          "name": "to",
          "type": "address"
        },
        {
          "indexed": true,
          "internalType": "uint256",
          "name": "tokenId",
          "type": "uint256"
        }
      ],
      "name": "Transfer",
      "type": "event"
    },
    {
      "inputs": [],
      "name": "NAME",
      "outputs": [
        {
          "internalType": "string",
          "name": "",
          "type": "string"
        }
      ],
      "stateMutability": "view",
      "type": "function",
      "constant": true
    },
    {
      "inputs": [],
      "name": "SYMBOL",
      "outputs": [
        {
          "internalType": "string",
          "name": "",
          "type": "string"
        }
      ],
      "stateMutability": "view",
      "type": "function",
      "constant": true
    },
    {
      "inputs": [
        {
          "internalType": "address",
          "name": "to",
          "type": "address"
        },
        {
          "internalType": "uint256",
          "name": "tokenId",
          "type": "uint256"
        }
      ],
      "name": "approve",
      "outputs": [],
      "stateMutability": "nonpayable",
      "type": "function"
    },
    {
      "inputs": [
        {
          "internalType": "address",
          "name": "owner",
          "type": "address"
        }
      ],
      "name": "balanceOf",
      "outputs": [
        {
          "internalType": "uint256",
          "name": "",
          "type": "uint256"
        }
      ],
      "stateMutability": "view",
      "type": "function",
      "constant": true
    },
    {
      "inputs": [
        {
          "internalType": "uint256",
          "name": "tokenId",
          "type": "uint256"
        }
      ],
      "name": "getApproved",
      "outputs": [
        {
          "internalType": "address",
          "name": "",
          "type": "address"
        }
      ],
      "stateMutability": "view",
      "type": "function",
      "constant": true
    },
    {
      "inputs": [
        {
          "internalType": "address",
          "name": "owner",
          "type": "address"
        },
        {
          "internalType": "address",
          "name": "operator",
          "type": "address"
        }
      ],
      "name": "isApprovedForAll",
      "outputs": [
        {
          "internalType": "bool",
          "name": "",
          "type": "bool"
        }
      ],
      "stateMutability": "view",
      "type": "function",
      "constant": true
    },
    {
      "inputs": [],
      "name": "name",
      "outputs": [
        {
          "internalType": "string",
          "name": "",
          "type": "string"
        }
      ],
      "stateMutability": "view",
      "type": "function",
      "constant": true
    },
    {
      "inputs": [
        {
          "internalType": "uint256",
          "name": "tokenId",
          "type": "uint256"
        }
      ],
      "name": "ownerOf",
      "outputs": [
        {
          "internalType": "address",
          "name": "",
          "type": "address"
        }
      ],
      "stateMutability": "view",
      "type": "function",
      "constant": true
    },
    {
      "inputs": [
        {
          "internalType": "address",
          "name": "from",
          "type": "address"
        },
        {
          "internalType": "address",
          "name": "to",
          "type": "address"
        },
        {
          "internalType": "uint256",
          "name": "tokenId",
          "type": "uint256"
        }
      ],
      "name": "safeTransferFrom",
      "outputs": [],
      "stateMutability": "nonpayable",
      "type": "function"
    },
    {
      "inputs": [
        {
          "internalType": "address",
          "name": "from",
          "type": "address"
        },
        {
          "internalType": "address",
          "name": "to",
          "type": "address"
        },
        {
          "internalType": "uint256",
          "name": "tokenId",
          "type": "uint256"
        },
        {
          "internalType": "bytes",
          "name": "data",
          "type": "bytes"
        }
      ],
      "name": "safeTransferFrom",
      "outputs": [],
      "stateMutability": "nonpayable",
      "type": "function"
    },
    {
      "inputs": [
        {
          "internalType": "address",
          "name": "operator",
          "type": "address"
        },
        {
          "internalType": "bool",
          "name": "approved",
          "type": "bool"
        }
      ],
      "name": "setApprovalForAll",
      "outputs": [],
      "stateMutability": "nonpayable",
      "type": "function"
    },
    {
      "inputs": [
        {
          "internalType": "bytes4",
          "name": "interfaceId",
          "type": "bytes4"
        }
      ],
      "name": "supportsInterface",
      "outputs": [
        {
          "internalType": "bool",
          "name": "",
          "type": "bool"
        }
      ],
      "stateMutability": "view",
      "type": "function",
      "constant": true
    },
    {
      "inputs": [],
      "name": "symbol",
      "outputs": [
        {
          "internalType": "string",
          "name": "",
          "type": "string"
        }
      ],
      "stateMutability": "view",
      "type": "function",
      "constant": true
    },
    {
      "inputs": [
        {
          "internalType": "uint256",
          "name": "tokenId",
          "type": "uint256"
        }
      ],
      "name": "tokenURI",
      "outputs": [
        {
          "internalType": "string",
          "name": "",
          "type": "string"
        }
      ],
      "stateMutability": "view",
      "type": "function",
      "constant": true
    },
    {
      "inputs": [
        {
          "internalType": "address",
          "name": "newOwner",
          "type": "address"
        }
      ],
      "name": "transferOwnership",
      "outputs": [],
      "stateMutability": "nonpayable",
      "type": "function"
    },
    {
      "inputs": [
        {
          "internalType": "address",
          "name": "from",
          "type": "address"
        },
        {
          "internalType": "address",
          "name": "to",
          "type": "address"
        },
        {
          "internalType": "uint256",
          "name": "tokenId",
          "type": "uint256"
        }
      ],
      "name": "transferFrom",
      "outputs": [],
      "stateMutability": "nonpayable",
      "type": "function"
    },
    {
      "inputs": [
        {
          "internalType": "address",
          "name": "_account",
          "type": "address"
        },
        {
          "internalType": "uint256",
          "name": "_type",
          "type": "uint256"
        }
      ],
      "name": "giveLicense",
      "outputs": [],
      "stateMutability": "nonpayable",
      "type": "function"
    },
    {
      "inputs": [
        {
          "internalType": "address",
          "name": "_account",
          "type": "address"
        }
      ],
      "name": "getAllTokensOfAccount",
      "outputs": [
        {
          "components": [
            {
              "internalType": "enum LicenseToken.LicenseType",
              "name": "licenseType",
              "type": "uint8"
            },
            {
              "internalType": "uint256",
              "name": "registeredOn",
              "type": "uint256"
            },
            {
              "internalType": "uint256",
              "name": "expiresOn",
              "type": "uint256"
            },
            {
              "internalType": "enum LicenseToken.LicenseState",
              "name": "state",
              "type": "uint8"
            },
            {
              "internalType": "string",
              "name": "deviceId",
              "type": "string"
            }
          ],
          "internalType": "struct LicenseToken.LicenseInfo[]",
          "name": "",
          "type": "tuple[]"
        }
      ],
      "stateMutability": "view",
      "type": "function",
      "constant": true
    },
    {
      "inputs": [
        {
          "internalType": "address",
          "name": "_account",
          "type": "address"
        }
      ],
      "name": "getAllTokenIdsOfAccount",
      "outputs": [
        {
          "internalType": "uint256[]",
          "name": "",
          "type": "uint256[]"
        }
      ],
      "stateMutability": "view",
      "type": "function",
      "constant": true
    },
    {
      "inputs": [
        {
          "internalType": "address",
          "name": "_account",
          "type": "address"
        },
        {
          "internalType": "uint256",
          "name": "_tokenId",
          "type": "uint256"
        }
      ],
      "name": "getTokenInfo",
      "outputs": [
        {
          "components": [
            {
              "internalType": "enum LicenseToken.LicenseType",
              "name": "licenseType",
              "type": "uint8"
            },
            {
              "internalType": "uint256",
              "name": "registeredOn",
              "type": "uint256"
            },
            {
              "internalType": "uint256",
              "name": "expiresOn",
              "type": "uint256"
            },
            {
              "internalType": "enum LicenseToken.LicenseState",
              "name": "state",
              "type": "uint8"
            },
            {
              "internalType": "string",
              "name": "deviceId",
              "type": "string"
            }
          ],
          "internalType": "struct LicenseToken.LicenseInfo",
          "name": "",
          "type": "tuple"
        }
      ],
      "stateMutability": "view",
      "type": "function",
      "constant": true
    },
    {
      "inputs": [
        {
          "internalType": "address",
          "name": "_account",
          "type": "address"
        },
        {
          "internalType": "uint256",
          "name": "_tokenId",
          "type": "uint256"
        },
        {
          "internalType": "string",
          "name": "_deviceId",
          "type": "string"
        },
        {
          "internalType": "uint256",
          "name": "licenseLifeTime",
          "type": "uint256"
        }
      ],
      "name": "activate",
      "outputs": [],
      "stateMutability": "nonpayable",
      "type": "function"
    },
    {
      "inputs": [
        {
          "internalType": "address",
          "name": "_account",
          "type": "address"
        },
        {
          "internalType": "uint256",
          "name": "_tokenId",
          "type": "uint256"
        },
        {
          "internalType": "uint256",
          "name": "extensionTime",
          "type": "uint256"
        }
      ],
      "name": "renewal",
      "outputs": [],
      "stateMutability": "nonpayable",
      "type": "function"
    },
    {
      "inputs": [
        {
          "internalType": "address",
          "name": "_account",
          "type": "address"
        },
        {
          "internalType": "uint256",
          "name": "_tokenId",
          "type": "uint256"
        }
      ],
      "name": "isLicenseActive",
      "outputs": [
        {
          "internalType": "uint256",
          "name": "state",
          "type": "uint256"
        }
      ],
      "stateMutability": "view",
      "type": "function",
      "constant": true
    },
    {
      "inputs": [
        {
          "internalType": "address",
          "name": "_account",
          "type": "address"
        },
        {
          "internalType": "uint256",
          "name": "_tokenId",
          "type": "uint256"
        }
      ],
      "name": "handleExpiredLicense",
      "outputs": [],
      "stateMutability": "nonpayable",
      "type": "function"
    },
    {
      "inputs": [
        {
          "internalType": "address",
          "name": "_account",
          "type": "address"
        },
        {
          "internalType": "uint256",
          "name": "_tokenId",
          "type": "uint256"
        }
      ],
      "name": "processCheatExpiredLicense",
      "outputs": [],
      "stateMutability": "nonpayable",
      "type": "function"
    }
  ],
  "bytecode": "0x60806040526040518060400160405280600c81526020017f4c6963656e7365546f6b656e0000000000000000000000000000000000000000815250600a9080519060200190620000519291906200024e565b506040518060400160405280600381526020017f4c54430000000000000000000000000000000000000000000000000000000000815250600b90805190602001906200009f9291906200024e565b50348015620000ad57600080fd5b50600a8054620000bd906200032d565b80601f0160208091040260200160405190810160405280929190818152602001828054620000eb906200032d565b80156200013c5780601f1062000110576101008083540402835291602001916200013c565b820191906000526020600020905b8154815290600101906020018083116200011e57829003601f168201915b5050505050600b805462000150906200032d565b80601f01602080910402602001604051908101604052809291908181526020018280546200017e906200032d565b8015620001cf5780601f10620001a357610100808354040283529160200191620001cf565b820191906000526020600020905b815481529060010190602001808311620001b157829003601f168201915b5050505050336000806101000a81548173ffffffffffffffffffffffffffffffffffffffff021916908373ffffffffffffffffffffffffffffffffffffffff16021790555081600190805190602001906200022c9291906200024e565b508060029080519060200190620002459291906200024e565b50505062000362565b8280546200025c906200032d565b90600052602060002090601f016020900481019282620002805760008555620002cc565b82601f106200029b57805160ff1916838001178555620002cc565b82800160010185558215620002cc579182015b82811115620002cb578251825591602001919060010190620002ae565b5b509050620002db9190620002df565b5090565b5b80821115620002fa576000816000905550600101620002e0565b5090565b7f4e487b7100000000000000000000000000000000000000000000000000000000600052602260045260246000fd5b600060028204905060018216806200034657607f821691505b6020821081036200035c576200035b620002fe565b5b50919050565b6142a180620003726000396000f3fe608060405234801561001057600080fd5b50600436106101735760003560e01c80638c1944f6116100de578063bbd7d20911610097578063e985e9c511610071578063e985e9c51461047e578063f044cca3146104ae578063f2fde38b146104ca578063f76f8d78146104e657610173565b8063bbd7d20914610402578063c87b56dd14610432578063e1721ec81461046257610173565b80638c1944f61461034257806395d89b4114610372578063a22cb46514610390578063a3a5f02f146103ac578063a3f4df7e146103c8578063b88d4fde146103e657610173565b806342842e0e1161013057806342842e0e1461024a57806348c20f3d1461026657806350cce69214610296578063535a114c146102b25780636352211e146102e257806370a082311461031257610173565b806301ffc9a71461017857806306fdde03146101a8578063081812fc146101c6578063095ea7b3146101f657806321ea02f91461021257806323b872dd1461022e575b600080fd5b610192600480360381019061018d9190612d1e565b610504565b60405161019f9190612d66565b60405180910390f35b6101b06105e6565b6040516101bd9190612e1a565b60405180910390f35b6101e060048036038101906101db9190612e72565b610678565b6040516101ed9190612ee0565b60405180910390f35b610210600480360381019061020b9190612f27565b6106be565b005b61022c60048036038101906102279190612f27565b6107d5565b005b61024860048036038101906102439190612f67565b610907565b005b610264600480360381019061025f9190612f67565b61096f565b005b610280600480360381019061027b9190612f27565b61098f565b60405161028d9190612fc9565b60405180910390f35b6102b060048036038101906102ab9190612fe4565b610be2565b005b6102cc60048036038101906102c79190613037565b610def565b6040516102d99190613122565b60405180910390f35b6102fc60048036038101906102f79190612e72565b610ede565b6040516103099190612ee0565b60405180910390f35b61032c60048036038101906103279190613037565b610f8f565b6040516103399190612fc9565b60405180910390f35b61035c60048036038101906103579190613037565b611046565b6040516103699190613385565b60405180910390f35b61037a611336565b6040516103879190612e1a565b60405180910390f35b6103aa60048036038101906103a591906133d3565b6113c8565b005b6103c660048036038101906103c19190613548565b6113de565b005b6103d0611601565b6040516103dd9190612e1a565b60405180910390f35b61040060048036038101906103fb919061366c565b61168f565b005b61041c60048036038101906104179190612f27565b6116f1565b6040516104299190613765565b60405180910390f35b61044c60048036038101906104479190612e72565b61192a565b6040516104599190612e1a565b60405180910390f35b61047c60048036038101906104779190612f27565b611992565b005b61049860048036038101906104939190613787565b611b18565b6040516104a59190612d66565b60405180910390f35b6104c860048036038101906104c39190612f27565b611bac565b005b6104e460048036038101906104df9190613037565b611ccc565b005b6104ee611d67565b6040516104fb9190612e1a565b60405180910390f35b60007f80ac58cd000000000000000000000000000000000000000000000000000000007bffffffffffffffffffffffffffffffffffffffffffffffffffffffff1916827bffffffffffffffffffffffffffffffffffffffffffffffffffffffff191614806105cf57507f5b5e139f000000000000000000000000000000000000000000000000000000007bffffffffffffffffffffffffffffffffffffffffffffffffffffffff1916827bffffffffffffffffffffffffffffffffffffffffffffffffffffffff1916145b806105df57506105de82611df5565b5b9050919050565b6060600180546105f5906137f6565b80601f0160208091040260200160405190810160405280929190818152602001828054610621906137f6565b801561066e5780601f106106435761010080835404028352916020019161066e565b820191906000526020600020905b81548152906001019060200180831161065157829003601f168201915b5050505050905090565b600061068382611e5f565b6005600083815260200190815260200160002060009054906101000a900473ffffffffffffffffffffffffffffffffffffffff169050919050565b60006106c982610ede565b90508073ffffffffffffffffffffffffffffffffffffffff168373ffffffffffffffffffffffffffffffffffffffff1603610739576040517f08c379a000000000000000000000000000000000000000000000000000000000815260040161073090613899565b60405180910390fd5b8073ffffffffffffffffffffffffffffffffffffffff16610758611eaa565b73ffffffffffffffffffffffffffffffffffffffff161480610787575061078681610781611eaa565b611b18565b5b6107c6576040517f08c379a00000000000000000000000000000000000000000000000000000000081526004016107bd9061392b565b60405180910390fd5b6107d08383611eb2565b505050565b60008054906101000a900473ffffffffffffffffffffffffffffffffffffffff1673ffffffffffffffffffffffffffffffffffffffff163373ffffffffffffffffffffffffffffffffffffffff161461082d57600080fd5b60006108396007611f6b565b90506108456007611f79565b61084f8382611f8f565b600061085a83612168565b9050600860008573ffffffffffffffffffffffffffffffffffffffff1673ffffffffffffffffffffffffffffffffffffffff1681526020019081526020016000208290806001815401808255809150506001900390600052602060002001600090919091909150557fe64ed50a72f89416a9d4627904038ce6295f8e1ba454b256b03e922a48501f62848383602001516040516108f99392919061394b565b60405180910390a150505050565b60008054906101000a900473ffffffffffffffffffffffffffffffffffffffff1673ffffffffffffffffffffffffffffffffffffffff163373ffffffffffffffffffffffffffffffffffffffff161461095f57600080fd5b61096a838383612302565b505050565b61098a8383836040518060200160405280600081525061168f565b505050565b600061099a82612362565b6109d9576040517f08c379a00000000000000000000000000000000000000000000000000000000081526004016109d0906139ce565b60405180910390fd5b8273ffffffffffffffffffffffffffffffffffffffff166109f983610ede565b73ffffffffffffffffffffffffffffffffffffffff1614610a1957600080fd5b600060098381548110610a2f57610a2e6139ee565b5b90600052602060002090600502016040518060a00160405290816000820160009054906101000a900460ff166001811115610a6d57610a6c613170565b5b6001811115610a7f57610a7e613170565b5b815260200160018201548152602001600282015481526020016003820160009054906101000a900460ff166002811115610abc57610abb613170565b5b6002811115610ace57610acd613170565b5b8152602001600482018054610ae2906137f6565b80601f0160208091040260200160405190810160405280929190818152602001828054610b0e906137f6565b8015610b5b5780601f10610b3057610100808354040283529160200191610b5b565b820191906000526020600020905b815481529060010190602001808311610b3e57829003601f168201915b5050505050815250509050428160400151108015610ba1575060006002811115610b8857610b87613170565b5b81606001516002811115610b9f57610b9e613170565b5b145b15610bc157600280811115610bb957610bb8613170565b5b915050610bdc565b80606001516002811115610bd857610bd7613170565b5b9150505b92915050565b60008054906101000a900473ffffffffffffffffffffffffffffffffffffffff1673ffffffffffffffffffffffffffffffffffffffff163373ffffffffffffffffffffffffffffffffffffffff1614610c3a57600080fd5b610c4382612362565b610c82576040517f08c379a0000000000000000000000000000000000000000000000000000000008152600401610c79906139ce565b60405180910390fd5b8273ffffffffffffffffffffffffffffffffffffffff16610ca283610ede565b73ffffffffffffffffffffffffffffffffffffffff1614610cc257600080fd5b600060098381548110610cd857610cd76139ee565b5b906000526020600020906005020190506000816001015403610cf957600080fd5b60016002811115610d0d57610d0c613170565b5b8160030160009054906101000a900460ff166002811115610d3157610d30613170565b5b03610d3b57600080fd5b60008160030160006101000a81548160ff02191690836002811115610d6357610d62613170565b5b0217905550818160020154610d789190613a4c565b81600201819055507faf80d106a79a9b16507f9a9abd93b8150cd7e7b07d1820cc977563b718c1091984848360030160009054906101000a900460ff166002811115610dc757610dc6613170565b5b846002015485600401604051610de1959493929190613b37565b60405180910390a150505050565b606060008054906101000a900473ffffffffffffffffffffffffffffffffffffffff1673ffffffffffffffffffffffffffffffffffffffff163373ffffffffffffffffffffffffffffffffffffffff1614610e4957600080fd5b600860008373ffffffffffffffffffffffffffffffffffffffff1673ffffffffffffffffffffffffffffffffffffffff168152602001908152602001600020805480602002602001604051908101604052809291908181526020018280548015610ed257602002820191906000526020600020905b815481526020019060010190808311610ebe575b50505050509050919050565b6000806003600084815260200190815260200160002060009054906101000a900473ffffffffffffffffffffffffffffffffffffffff169050600073ffffffffffffffffffffffffffffffffffffffff168173ffffffffffffffffffffffffffffffffffffffff1603610f86576040517f08c379a0000000000000000000000000000000000000000000000000000000008152600401610f7d90613bdd565b60405180910390fd5b80915050919050565b60008073ffffffffffffffffffffffffffffffffffffffff168273ffffffffffffffffffffffffffffffffffffffff1603610fff576040517f08c379a0000000000000000000000000000000000000000000000000000000008152600401610ff690613c6f565b60405180910390fd5b600460008373ffffffffffffffffffffffffffffffffffffffff1673ffffffffffffffffffffffffffffffffffffffff168152602001908152602001600020549050919050565b606060008054906101000a900473ffffffffffffffffffffffffffffffffffffffff1673ffffffffffffffffffffffffffffffffffffffff163373ffffffffffffffffffffffffffffffffffffffff16146110a057600080fd5b6000600860008473ffffffffffffffffffffffffffffffffffffffff1673ffffffffffffffffffffffffffffffffffffffff16815260200190815260200160002080548060200260200160405190810160405280929190818152602001828054801561112b57602002820191906000526020600020905b815481526020019060010190808311611117575b505050505090506000815167ffffffffffffffff81111561114f5761114e61341d565b5b60405190808252806020026020018201604052801561118857816020015b611175612bbc565b81526020019060019003908161116d5790505b50905060005b825181101561132b5760098382815181106111ac576111ab6139ee565b5b6020026020010151815481106111c5576111c46139ee565b5b90600052602060002090600502016040518060a00160405290816000820160009054906101000a900460ff16600181111561120357611202613170565b5b600181111561121557611214613170565b5b815260200160018201548152602001600282015481526020016003820160009054906101000a900460ff16600281111561125257611251613170565b5b600281111561126457611263613170565b5b8152602001600482018054611278906137f6565b80601f01602080910402602001604051908101604052809291908181526020018280546112a4906137f6565b80156112f15780601f106112c6576101008083540402835291602001916112f1565b820191906000526020600020905b8154815290600101906020018083116112d457829003601f168201915b50505050508152505082828151811061130d5761130c6139ee565b5b6020026020010181905250808061132390613c8f565b91505061118e565b508092505050919050565b606060028054611345906137f6565b80601f0160208091040260200160405190810160405280929190818152602001828054611371906137f6565b80156113be5780601f10611393576101008083540402835291602001916113be565b820191906000526020600020905b8154815290600101906020018083116113a157829003601f168201915b5050505050905090565b6113da6113d3611eaa565b83836123ce565b5050565b60008054906101000a900473ffffffffffffffffffffffffffffffffffffffff1673ffffffffffffffffffffffffffffffffffffffff163373ffffffffffffffffffffffffffffffffffffffff161461143657600080fd5b61143f83612362565b61147e576040517f08c379a0000000000000000000000000000000000000000000000000000000008152600401611475906139ce565b60405180910390fd5b8373ffffffffffffffffffffffffffffffffffffffff1661149e84610ede565b73ffffffffffffffffffffffffffffffffffffffff16146114be57600080fd5b6000600984815481106114d4576114d36139ee565b5b9060005260206000209060050201905060008160010154036114f557600080fd5b6001600281111561150957611508613170565b5b8160030160009054906101000a900460ff16600281111561152d5761152c613170565b5b1461153757600080fd5b60008160030160006101000a81548160ff0219169083600281111561155f5761155e613170565b5b021790555081426115709190613a4c565b816002018190555082816004019080519060200190611590929190612c0f565b507f377670bd351594b29cfa84c6023c06d49c2aaa6e40357f5aca1f918ce5ae2e0485858360030160009054906101000a900460ff1660028111156115d8576115d7613170565b5b8460020154856004016040516115f2959493929190613b37565b60405180910390a15050505050565b600a805461160e906137f6565b80601f016020809104026020016040519081016040528092919081815260200182805461163a906137f6565b80156116875780601f1061165c57610100808354040283529160200191611687565b820191906000526020600020905b81548152906001019060200180831161166a57829003601f168201915b505050505081565b6116a061169a611eaa565b8361253a565b6116df576040517f08c379a00000000000000000000000000000000000000000000000000000000081526004016116d690613d49565b60405180910390fd5b6116eb848484846125cf565b50505050565b6116f9612bbc565b60008054906101000a900473ffffffffffffffffffffffffffffffffffffffff1673ffffffffffffffffffffffffffffffffffffffff163373ffffffffffffffffffffffffffffffffffffffff161461175157600080fd5b61175a82612362565b611799576040517f08c379a0000000000000000000000000000000000000000000000000000000008152600401611790906139ce565b60405180910390fd5b8273ffffffffffffffffffffffffffffffffffffffff166117b983610ede565b73ffffffffffffffffffffffffffffffffffffffff16146117d957600080fd5b600982815481106117ed576117ec6139ee565b5b90600052602060002090600502016040518060a00160405290816000820160009054906101000a900460ff16600181111561182b5761182a613170565b5b600181111561183d5761183c613170565b5b815260200160018201548152602001600282015481526020016003820160009054906101000a900460ff16600281111561187a57611879613170565b5b600281111561188c5761188b613170565b5b81526020016004820180546118a0906137f6565b80601f01602080910402602001604051908101604052809291908181526020018280546118cc906137f6565b80156119195780601f106118ee57610100808354040283529160200191611919565b820191906000526020600020905b8154815290600101906020018083116118fc57829003601f168201915b505050505081525050905092915050565b606061193582611e5f565b600061193f61262b565b9050600081511161195f576040518060200160405280600081525061198a565b8061196984612642565b60405160200161197a929190613da5565b6040516020818303038152906040525b915050919050565b60008054906101000a900473ffffffffffffffffffffffffffffffffffffffff1673ffffffffffffffffffffffffffffffffffffffff163373ffffffffffffffffffffffffffffffffffffffff16146119ea57600080fd5b6119f381612362565b611a32576040517f08c379a0000000000000000000000000000000000000000000000000000000008152600401611a29906139ce565b60405180910390fd5b8173ffffffffffffffffffffffffffffffffffffffff16611a5282610ede565b73ffffffffffffffffffffffffffffffffffffffff1614611a7257600080fd5b600060098281548110611a8857611a876139ee565b5b90600052602060002090600502019050428160020154108015611ae0575060006002811115611aba57611ab9613170565b5b8160030160009054906101000a900460ff166002811115611ade57611add613170565b5b145b15611b135760028160030160006101000a81548160ff02191690836002811115611b0d57611b0c613170565b5b02179055505b505050565b6000600660008473ffffffffffffffffffffffffffffffffffffffff1673ffffffffffffffffffffffffffffffffffffffff16815260200190815260200160002060008373ffffffffffffffffffffffffffffffffffffffff1673ffffffffffffffffffffffffffffffffffffffff16815260200190815260200160002060009054906101000a900460ff16905092915050565b60008054906101000a900473ffffffffffffffffffffffffffffffffffffffff1673ffffffffffffffffffffffffffffffffffffffff163373ffffffffffffffffffffffffffffffffffffffff1614611c0457600080fd5b611c0d81612362565b611c4c576040517f08c379a0000000000000000000000000000000000000000000000000000000008152600401611c43906139ce565b60405180910390fd5b8173ffffffffffffffffffffffffffffffffffffffff16611c6c82610ede565b73ffffffffffffffffffffffffffffffffffffffff1614611c8c57600080fd5b600060098281548110611ca257611ca16139ee565b5b90600052602060002090600502019050600a42611cbf9190613dc9565b8160020181905550505050565b60008054906101000a900473ffffffffffffffffffffffffffffffffffffffff1673ffffffffffffffffffffffffffffffffffffffff163373ffffffffffffffffffffffffffffffffffffffff1614611d2457600080fd5b806000806101000a81548173ffffffffffffffffffffffffffffffffffffffff021916908373ffffffffffffffffffffffffffffffffffffffff16021790555050565b600b8054611d74906137f6565b80601f0160208091040260200160405190810160405280929190818152602001828054611da0906137f6565b8015611ded5780601f10611dc257610100808354040283529160200191611ded565b820191906000526020600020905b815481529060010190602001808311611dd057829003601f168201915b505050505081565b60007f01ffc9a7000000000000000000000000000000000000000000000000000000007bffffffffffffffffffffffffffffffffffffffffffffffffffffffff1916827bffffffffffffffffffffffffffffffffffffffffffffffffffffffff1916149050919050565b611e6881612362565b611ea7576040517f08c379a0000000000000000000000000000000000000000000000000000000008152600401611e9e90613bdd565b60405180910390fd5b50565b600033905090565b816005600083815260200190815260200160002060006101000a81548173ffffffffffffffffffffffffffffffffffffffff021916908373ffffffffffffffffffffffffffffffffffffffff160217905550808273ffffffffffffffffffffffffffffffffffffffff16611f2583610ede565b73ffffffffffffffffffffffffffffffffffffffff167f8c5be1e5ebec7d5bd14f71427d1e84f3dd0314c0f7b2291e5b200ac8c7c3b92560405160405180910390a45050565b600081600001549050919050565b6001816000016000828254019250508190555050565b600073ffffffffffffffffffffffffffffffffffffffff168273ffffffffffffffffffffffffffffffffffffffff1603611ffe576040517f08c379a0000000000000000000000000000000000000000000000000000000008152600401611ff590613e49565b60405180910390fd5b61200781612362565b15612047576040517f08c379a000000000000000000000000000000000000000000000000000000000815260040161203e90613eb5565b60405180910390fd5b612053600083836127a2565b6001600460008473ffffffffffffffffffffffffffffffffffffffff1673ffffffffffffffffffffffffffffffffffffffff16815260200190815260200160002060008282546120a39190613a4c565b92505081905550816003600083815260200190815260200160002060006101000a81548173ffffffffffffffffffffffffffffffffffffffff021916908373ffffffffffffffffffffffffffffffffffffffff160217905550808273ffffffffffffffffffffffffffffffffffffffff16600073ffffffffffffffffffffffffffffffffffffffff167fddf252ad1be2c89b69c2b068fc378daa952ba7f163c4a11628f55a4df523b3ef60405160405180910390a4612164600083836127a7565b5050565b612170612bbc565b60008054906101000a900473ffffffffffffffffffffffffffffffffffffffff1673ffffffffffffffffffffffffffffffffffffffff163373ffffffffffffffffffffffffffffffffffffffff16146121c857600080fd5b60006040518060a001604052808460018111156121e8576121e7613170565b5b60018111156121fa576121f9613170565b5b815260200142815260200160008152602001600160028111156122205761221f613170565b5b8152602001604051806020016040528060008152508152509050600981908060018154018082558091505060019003906000526020600020906005020160009091909190915060008201518160000160006101000a81548160ff0219169083600181111561229157612290613170565b5b0217905550602082015181600101556040820151816002015560608201518160030160006101000a81548160ff021916908360028111156122d5576122d4613170565b5b021790555060808201518160040190805190602001906122f6929190612c0f565b50505080915050919050565b61231361230d611eaa565b8261253a565b612352576040517f08c379a000000000000000000000000000000000000000000000000000000000815260040161234990613d49565b60405180910390fd5b61235d8383836127ac565b505050565b60008073ffffffffffffffffffffffffffffffffffffffff166003600084815260200190815260200160002060009054906101000a900473ffffffffffffffffffffffffffffffffffffffff1673ffffffffffffffffffffffffffffffffffffffff1614159050919050565b8173ffffffffffffffffffffffffffffffffffffffff168373ffffffffffffffffffffffffffffffffffffffff160361243c576040517f08c379a000000000000000000000000000000000000000000000000000000000815260040161243390613f21565b60405180910390fd5b80600660008573ffffffffffffffffffffffffffffffffffffffff1673ffffffffffffffffffffffffffffffffffffffff16815260200190815260200160002060008473ffffffffffffffffffffffffffffffffffffffff1673ffffffffffffffffffffffffffffffffffffffff16815260200190815260200160002060006101000a81548160ff0219169083151502179055508173ffffffffffffffffffffffffffffffffffffffff168373ffffffffffffffffffffffffffffffffffffffff167f17307eab39ab6107e8899845ad3d59bd9653f200f220920489ca2b5937696c318360405161252d9190612d66565b60405180910390a3505050565b60008061254683610ede565b90508073ffffffffffffffffffffffffffffffffffffffff168473ffffffffffffffffffffffffffffffffffffffff16148061258857506125878185611b18565b5b806125c657508373ffffffffffffffffffffffffffffffffffffffff166125ae84610678565b73ffffffffffffffffffffffffffffffffffffffff16145b91505092915050565b6125da8484846127ac565b6125e684848484612a12565b612625576040517f08c379a000000000000000000000000000000000000000000000000000000000815260040161261c90613fb3565b60405180910390fd5b50505050565b606060405180602001604052806000815250905090565b606060008203612689576040518060400160405280600181526020017f3000000000000000000000000000000000000000000000000000000000000000815250905061279d565b600082905060005b600082146126bb5780806126a490613c8f565b915050600a826126b49190614002565b9150612691565b60008167ffffffffffffffff8111156126d7576126d661341d565b5b6040519080825280601f01601f1916602001820160405280156127095781602001600182028036833780820191505090505b5090505b60008514612796576001826127229190613dc9565b9150600a856127319190614033565b603061273d9190613a4c565b60f81b818381518110612753576127526139ee565b5b60200101907effffffffffffffffffffffffffffffffffffffffffffffffffffffffffffff1916908160001a905350600a8561278f9190614002565b945061270d565b8093505050505b919050565b505050565b505050565b8273ffffffffffffffffffffffffffffffffffffffff166127cc82610ede565b73ffffffffffffffffffffffffffffffffffffffff1614612822576040517f08c379a0000000000000000000000000000000000000000000000000000000008152600401612819906140d6565b60405180910390fd5b600073ffffffffffffffffffffffffffffffffffffffff168273ffffffffffffffffffffffffffffffffffffffff1603612891576040517f08c379a000000000000000000000000000000000000000000000000000000000815260040161288890614168565b60405180910390fd5b61289c8383836127a2565b6128a7600082611eb2565b6001600460008573ffffffffffffffffffffffffffffffffffffffff1673ffffffffffffffffffffffffffffffffffffffff16815260200190815260200160002060008282546128f79190613dc9565b925050819055506001600460008473ffffffffffffffffffffffffffffffffffffffff1673ffffffffffffffffffffffffffffffffffffffff168152602001908152602001600020600082825461294e9190613a4c565b92505081905550816003600083815260200190815260200160002060006101000a81548173ffffffffffffffffffffffffffffffffffffffff021916908373ffffffffffffffffffffffffffffffffffffffff160217905550808273ffffffffffffffffffffffffffffffffffffffff168473ffffffffffffffffffffffffffffffffffffffff167fddf252ad1be2c89b69c2b068fc378daa952ba7f163c4a11628f55a4df523b3ef60405160405180910390a4612a0d8383836127a7565b505050565b6000612a338473ffffffffffffffffffffffffffffffffffffffff16612b99565b15612b8c578373ffffffffffffffffffffffffffffffffffffffff1663150b7a02612a5c611eaa565b8786866040518563ffffffff1660e01b8152600401612a7e94939291906141dd565b6020604051808303816000875af1925050508015612aba57506040513d601f19601f82011682018060405250810190612ab7919061423e565b60015b612b3c573d8060008114612aea576040519150601f19603f3d011682016040523d82523d6000602084013e612aef565b606091505b506000815103612b34576040517f08c379a0000000000000000000000000000000000000000000000000000000008152600401612b2b90613fb3565b60405180910390fd5b805181602001fd5b63150b7a0260e01b7bffffffffffffffffffffffffffffffffffffffffffffffffffffffff1916817bffffffffffffffffffffffffffffffffffffffffffffffffffffffff191614915050612b91565b600190505b949350505050565b6000808273ffffffffffffffffffffffffffffffffffffffff163b119050919050565b6040518060a0016040528060006001811115612bdb57612bda613170565b5b8152602001600081526020016000815260200160006002811115612c0257612c01613170565b5b8152602001606081525090565b828054612c1b906137f6565b90600052602060002090601f016020900481019282612c3d5760008555612c84565b82601f10612c5657805160ff1916838001178555612c84565b82800160010185558215612c84579182015b82811115612c83578251825591602001919060010190612c68565b5b509050612c919190612c95565b5090565b5b80821115612cae576000816000905550600101612c96565b5090565b6000604051905090565b600080fd5b600080fd5b60007fffffffff0000000000000000000000000000000000000000000000000000000082169050919050565b612cfb81612cc6565b8114612d0657600080fd5b50565b600081359050612d1881612cf2565b92915050565b600060208284031215612d3457612d33612cbc565b5b6000612d4284828501612d09565b91505092915050565b60008115159050919050565b612d6081612d4b565b82525050565b6000602082019050612d7b6000830184612d57565b92915050565b600081519050919050565b600082825260208201905092915050565b60005b83811015612dbb578082015181840152602081019050612da0565b83811115612dca576000848401525b50505050565b6000601f19601f8301169050919050565b6000612dec82612d81565b612df68185612d8c565b9350612e06818560208601612d9d565b612e0f81612dd0565b840191505092915050565b60006020820190508181036000830152612e348184612de1565b905092915050565b6000819050919050565b612e4f81612e3c565b8114612e5a57600080fd5b50565b600081359050612e6c81612e46565b92915050565b600060208284031215612e8857612e87612cbc565b5b6000612e9684828501612e5d565b91505092915050565b600073ffffffffffffffffffffffffffffffffffffffff82169050919050565b6000612eca82612e9f565b9050919050565b612eda81612ebf565b82525050565b6000602082019050612ef56000830184612ed1565b92915050565b612f0481612ebf565b8114612f0f57600080fd5b50565b600081359050612f2181612efb565b92915050565b60008060408385031215612f3e57612f3d612cbc565b5b6000612f4c85828601612f12565b9250506020612f5d85828601612e5d565b9150509250929050565b600080600060608486031215612f8057612f7f612cbc565b5b6000612f8e86828701612f12565b9350506020612f9f86828701612f12565b9250506040612fb086828701612e5d565b9150509250925092565b612fc381612e3c565b82525050565b6000602082019050612fde6000830184612fba565b92915050565b600080600060608486031215612ffd57612ffc612cbc565b5b600061300b86828701612f12565b935050602061301c86828701612e5d565b925050604061302d86828701612e5d565b9150509250925092565b60006020828403121561304d5761304c612cbc565b5b600061305b84828501612f12565b91505092915050565b600081519050919050565b600082825260208201905092915050565b6000819050602082019050919050565b61309981612e3c565b82525050565b60006130ab8383613090565b60208301905092915050565b6000602082019050919050565b60006130cf82613064565b6130d9818561306f565b93506130e483613080565b8060005b838110156131155781516130fc888261309f565b9750613107836130b7565b9250506001810190506130e8565b5085935050505092915050565b6000602082019050818103600083015261313c81846130c4565b905092915050565b600081519050919050565b600082825260208201905092915050565b6000819050602082019050919050565b7f4e487b7100000000000000000000000000000000000000000000000000000000600052602160045260246000fd5b600281106131b0576131af613170565b5b50565b60008190506131c18261319f565b919050565b60006131d1826131b3565b9050919050565b6131e1816131c6565b82525050565b600381106131f8576131f7613170565b5b50565b6000819050613209826131e7565b919050565b6000613219826131fb565b9050919050565b6132298161320e565b82525050565b600082825260208201905092915050565b600061324b82612d81565b613255818561322f565b9350613265818560208601612d9d565b61326e81612dd0565b840191505092915050565b600060a08301600083015161329160008601826131d8565b5060208301516132a46020860182613090565b5060408301516132b76040860182613090565b5060608301516132ca6060860182613220565b50608083015184820360808601526132e28282613240565b9150508091505092915050565b60006132fb8383613279565b905092915050565b6000602082019050919050565b600061331b82613144565b613325818561314f565b93508360208202850161333785613160565b8060005b85811015613373578484038952815161335485826132ef565b945061335f83613303565b925060208a0199505060018101905061333b565b50829750879550505050505092915050565b6000602082019050818103600083015261339f8184613310565b905092915050565b6133b081612d4b565b81146133bb57600080fd5b50565b6000813590506133cd816133a7565b92915050565b600080604083850312156133ea576133e9612cbc565b5b60006133f885828601612f12565b9250506020613409858286016133be565b9150509250929050565b600080fd5b600080fd5b7f4e487b7100000000000000000000000000000000000000000000000000000000600052604160045260246000fd5b61345582612dd0565b810181811067ffffffffffffffff821117156134745761347361341d565b5b80604052505050565b6000613487612cb2565b9050613493828261344c565b919050565b600067ffffffffffffffff8211156134b3576134b261341d565b5b6134bc82612dd0565b9050602081019050919050565b82818337600083830152505050565b60006134eb6134e684613498565b61347d565b90508281526020810184848401111561350757613506613418565b5b6135128482856134c9565b509392505050565b600082601f83011261352f5761352e613413565b5b813561353f8482602086016134d8565b91505092915050565b6000806000806080858703121561356257613561612cbc565b5b600061357087828801612f12565b945050602061358187828801612e5d565b935050604085013567ffffffffffffffff8111156135a2576135a1612cc1565b5b6135ae8782880161351a565b92505060606135bf87828801612e5d565b91505092959194509250565b600067ffffffffffffffff8211156135e6576135e561341d565b5b6135ef82612dd0565b9050602081019050919050565b600061360f61360a846135cb565b61347d565b90508281526020810184848401111561362b5761362a613418565b5b6136368482856134c9565b509392505050565b600082601f83011261365357613652613413565b5b81356136638482602086016135fc565b91505092915050565b6000806000806080858703121561368657613685612cbc565b5b600061369487828801612f12565b94505060206136a587828801612f12565b93505060406136b687828801612e5d565b925050606085013567ffffffffffffffff8111156136d7576136d6612cc1565b5b6136e38782880161363e565b91505092959194509250565b600060a08301600083015161370760008601826131d8565b50602083015161371a6020860182613090565b50604083015161372d6040860182613090565b5060608301516137406060860182613220565b50608083015184820360808601526137588282613240565b9150508091505092915050565b6000602082019050818103600083015261377f81846136ef565b905092915050565b6000806040838503121561379e5761379d612cbc565b5b60006137ac85828601612f12565b92505060206137bd85828601612f12565b9150509250929050565b7f4e487b7100000000000000000000000000000000000000000000000000000000600052602260045260246000fd5b6000600282049050600182168061380e57607f821691505b602082108103613821576138206137c7565b5b50919050565b7f4552433732313a20617070726f76616c20746f2063757272656e74206f776e6560008201527f7200000000000000000000000000000000000000000000000000000000000000602082015250565b6000613883602183612d8c565b915061388e82613827565b604082019050919050565b600060208201905081810360008301526138b281613876565b9050919050565b7f4552433732313a20617070726f76652063616c6c6572206973206e6f7420746f60008201527f6b656e206f776e6572206e6f7220617070726f76656420666f7220616c6c0000602082015250565b6000613915603e83612d8c565b9150613920826138b9565b604082019050919050565b6000602082019050818103600083015261394481613908565b9050919050565b60006060820190506139606000830186612ed1565b61396d6020830185612fba565b61397a6040830184612fba565b949350505050565b7f746f6b656e4964206973206e6f7420617661696c61626c652100000000000000600082015250565b60006139b8601983612d8c565b91506139c382613982565b602082019050919050565b600060208201905081810360008301526139e7816139ab565b9050919050565b7f4e487b7100000000000000000000000000000000000000000000000000000000600052603260045260246000fd5b7f4e487b7100000000000000000000000000000000000000000000000000000000600052601160045260246000fd5b6000613a5782612e3c565b9150613a6283612e3c565b9250827fffffffffffffffffffffffffffffffffffffffffffffffffffffffffffffffff03821115613a9757613a96613a1d565b5b828201905092915050565b60008190508160005260206000209050919050565b60008154613ac4816137f6565b613ace8186612d8c565b94506001821660008114613ae95760018114613afb57613b2e565b60ff1983168652602086019350613b2e565b613b0485613aa2565b60005b83811015613b2657815481890152600182019150602081019050613b07565b808801955050505b50505092915050565b600060a082019050613b4c6000830188612ed1565b613b596020830187612fba565b613b666040830186612fba565b613b736060830185612fba565b8181036080830152613b858184613ab7565b90509695505050505050565b7f4552433732313a20696e76616c696420746f6b656e2049440000000000000000600082015250565b6000613bc7601883612d8c565b9150613bd282613b91565b602082019050919050565b60006020820190508181036000830152613bf681613bba565b9050919050565b7f4552433732313a2061646472657373207a65726f206973206e6f74206120766160008201527f6c6964206f776e65720000000000000000000000000000000000000000000000602082015250565b6000613c59602983612d8c565b9150613c6482613bfd565b604082019050919050565b60006020820190508181036000830152613c8881613c4c565b9050919050565b6000613c9a82612e3c565b91507fffffffffffffffffffffffffffffffffffffffffffffffffffffffffffffffff8203613ccc57613ccb613a1d565b5b600182019050919050565b7f4552433732313a2063616c6c6572206973206e6f7420746f6b656e206f776e6560008201527f72206e6f7220617070726f766564000000000000000000000000000000000000602082015250565b6000613d33602e83612d8c565b9150613d3e82613cd7565b604082019050919050565b60006020820190508181036000830152613d6281613d26565b9050919050565b600081905092915050565b6000613d7f82612d81565b613d898185613d69565b9350613d99818560208601612d9d565b80840191505092915050565b6000613db18285613d74565b9150613dbd8284613d74565b91508190509392505050565b6000613dd482612e3c565b9150613ddf83612e3c565b925082821015613df257613df1613a1d565b5b828203905092915050565b7f4552433732313a206d696e7420746f20746865207a65726f2061646472657373600082015250565b6000613e33602083612d8c565b9150613e3e82613dfd565b602082019050919050565b60006020820190508181036000830152613e6281613e26565b9050919050565b7f4552433732313a20746f6b656e20616c7265616479206d696e74656400000000600082015250565b6000613e9f601c83612d8c565b9150613eaa82613e69565b602082019050919050565b60006020820190508181036000830152613ece81613e92565b9050919050565b7f4552433732313a20617070726f766520746f2063616c6c657200000000000000600082015250565b6000613f0b601983612d8c565b9150613f1682613ed5565b602082019050919050565b60006020820190508181036000830152613f3a81613efe565b9050919050565b7f4552433732313a207472616e7366657220746f206e6f6e20455243373231526560008201527f63656976657220696d706c656d656e7465720000000000000000000000000000602082015250565b6000613f9d603283612d8c565b9150613fa882613f41565b604082019050919050565b60006020820190508181036000830152613fcc81613f90565b9050919050565b7f4e487b7100000000000000000000000000000000000000000000000000000000600052601260045260246000fd5b600061400d82612e3c565b915061401883612e3c565b92508261402857614027613fd3565b5b828204905092915050565b600061403e82612e3c565b915061404983612e3c565b92508261405957614058613fd3565b5b828206905092915050565b7f4552433732313a207472616e736665722066726f6d20696e636f72726563742060008201527f6f776e6572000000000000000000000000000000000000000000000000000000602082015250565b60006140c0602583612d8c565b91506140cb82614064565b604082019050919050565b600060208201905081810360008301526140ef816140b3565b9050919050565b7f4552433732313a207472616e7366657220746f20746865207a65726f2061646460008201527f7265737300000000000000000000000000000000000000000000000000000000602082015250565b6000614152602483612d8c565b915061415d826140f6565b604082019050919050565b6000602082019050818103600083015261418181614145565b9050919050565b600081519050919050565b600082825260208201905092915050565b60006141af82614188565b6141b98185614193565b93506141c9818560208601612d9d565b6141d281612dd0565b840191505092915050565b60006080820190506141f26000830187612ed1565b6141ff6020830186612ed1565b61420c6040830185612fba565b818103606083015261421e81846141a4565b905095945050505050565b60008151905061423881612cf2565b92915050565b60006020828403121561425457614253612cbc565b5b600061426284828501614229565b9150509291505056fea2646970667358221220cbe7b99e628db14597cb20d0a3ff15f7bfa81fc942f61c9e30dba120a3e6ee2c64736f6c634300080e0033",
  "immutableReferences": {},
  "source": " pragma solidity 0.8.14;\r\n\r\nimport \"@openzeppelin/contracts/token/ERC721/ERC721.sol\";\r\nimport \"@openzeppelin/contracts/utils/Counters.sol\";\r\n\r\ncontract Ownable {\r\n  address owner;\r\n   \r\n  constructor() {\r\n    owner = msg.sender;\r\n  }\r\n   \r\n  modifier onlyOwner {\r\n    require(msg.sender == owner);\r\n    _;\r\n  }\r\n   \r\n  function transferOwnership(address newOwner) onlyOwner  public {\r\n    owner = newOwner;\r\n  }\r\n}\r\n\r\ncontract LicenseToken is Ownable, ERC721 {\r\n\r\n  using Counters for Counters.Counter;\r\n  Counters.Counter private _tokenIds;\r\n\r\n  enum LicenseType {WIN, MAC}\r\n  enum LicenseState {ACTIVE, INACTIVE, EXPIRED}\r\n   \r\n  struct LicenseInfo {\r\n    LicenseType licenseType;\r\n    uint registeredOn;\r\n    uint expiresOn;\r\n    LicenseState state;\r\n    string deviceId;\r\n  }\r\n\r\n  mapping(address => uint256[]) tokenIdsOfAccount;\r\n\r\n  LicenseInfo[] tokens;\r\n  string public NAME = \"LicenseToken\";\r\n  string public SYMBOL = \"LTC\";\r\n\r\n  event LicenseGiven(address account, uint256 tokenId, uint registeredOn);\r\n  event LicenseActivate(address account, uint256 tokenId, uint state, uint expiresOn, string deviceId); \r\n  event LicenseRenewal(address _account, uint256 _tokenId, uint state, uint expiresOn, string deviceId);\r\n  event GetAllTokensOfAccount(address _account, LicenseInfo[] tokensOfAccount, uint256[] tokenIdsOfAccount);\r\n\r\n  constructor() ERC721(NAME, SYMBOL)  {}\r\n   \r\n   function transferFrom(address from, address to, uint256 tokenId) onlyOwner public virtual override {\r\n     ERC721.transferFrom(from, to, tokenId);\r\n   }\r\n\r\n  // licensing logic\r\n  function giveLicense(address _account, uint _type) onlyOwner public {\r\n    uint256 tokenId = _tokenIds.current();\r\n    _tokenIds.increment();\r\n    _mint(_account, tokenId);\r\n    LicenseInfo memory token = _createLicense(_type);\r\n    tokenIdsOfAccount[_account].push(tokenId);\r\n    emit LicenseGiven(_account, tokenId, token.registeredOn);\r\n  }\r\n\r\n  function _createLicense(uint256 _type) onlyOwner internal returns (LicenseInfo memory) {\r\n    LicenseInfo memory token = LicenseInfo({\r\n        licenseType: LicenseType(_type),\r\n        state: LicenseState.INACTIVE,\r\n        registeredOn: block.timestamp,\r\n        expiresOn: 0,\r\n        deviceId: \"\"\r\n    });\r\n    tokens.push(token);\r\n    return token;\r\n  }\r\n\r\n  function getAllTokensOfAccount(address _account) onlyOwner public view returns (LicenseInfo[] memory) {\r\n      uint256[] memory tokenIds = tokenIdsOfAccount[_account];\r\n      LicenseInfo[] memory tokensOfAccount = new LicenseInfo[](tokenIds.length);\r\n      for (uint256 i; i < tokenIds.length; i++) {\r\n              tokensOfAccount[i] = tokens[tokenIds[i]];\r\n      }\r\n      \r\n      return tokensOfAccount;\r\n  }\r\n  function getAllTokenIdsOfAccount(address _account) onlyOwner public view returns (uint256[] memory) {\r\n      return tokenIdsOfAccount[_account];\r\n  }\r\n\r\n  function getTokenInfo(address _account, uint256 _tokenId) onlyOwner public view returns (LicenseInfo memory) {\r\n    require(_exists(_tokenId), \"tokenId is not available!\");\r\n    require(ownerOf(_tokenId) == _account);\r\n    return tokens[_tokenId];\r\n  }\r\n   \r\n\r\n  function activate(address _account, uint256 _tokenId, string memory _deviceId, uint licenseLifeTime) onlyOwner public {\r\n    require(_exists(_tokenId), \"tokenId is not available!\");\r\n    require(ownerOf(_tokenId) == _account);\r\n    LicenseInfo storage token = tokens[_tokenId];\r\n    require(token.registeredOn != 0);\r\n    require(token.state == LicenseState.INACTIVE);\r\n   \r\n    token.state = LicenseState.ACTIVE;\r\n    token.expiresOn = block.timestamp + licenseLifeTime;\r\n    token.deviceId = _deviceId;\r\n    \r\n    emit LicenseActivate(_account, _tokenId, uint(token.state), token.expiresOn, token.deviceId);\r\n  }\r\n\r\n  function renewal(address _account, uint256 _tokenId, uint extensionTime) onlyOwner public {\r\n    require(_exists(_tokenId), \"tokenId is not available!\");\r\n    require(ownerOf(_tokenId) == _account);\r\n    LicenseInfo storage token = tokens[_tokenId];\r\n    require(token.registeredOn != 0);\r\n    require(token.state != LicenseState.INACTIVE);\r\n   \r\n    token.state = LicenseState.ACTIVE;\r\n    token.expiresOn = token.expiresOn + extensionTime;\r\n\r\n    emit LicenseRenewal(_account, _tokenId, uint(token.state), token.expiresOn, token.deviceId);\r\n  }\r\n\r\n   \r\n  function isLicenseActive(address _account, uint256 _tokenId) public view returns (uint state){\r\n    require(_exists(_tokenId), \"tokenId is not available!\");\r\n    require(ownerOf(_tokenId) == _account);\r\n   \r\n    LicenseInfo memory token = tokens[_tokenId];\r\n    if (token.expiresOn < block.timestamp && token.state == LicenseState.ACTIVE) {\r\n       return uint(LicenseState.EXPIRED);\r\n    }\r\n   \r\n    return uint(token.state);\r\n  }\r\n   \r\n  function handleExpiredLicense(address _account, uint256 _tokenId) onlyOwner public {\r\n    require(_exists(_tokenId), \"tokenId is not available!\");\r\n    require(ownerOf(_tokenId) == _account);\r\n   \r\n    LicenseInfo storage token = tokens[_tokenId];\r\n    if (token.expiresOn < block.timestamp && token.state == LicenseState.ACTIVE) {\r\n      token.state = LicenseState.EXPIRED;\r\n      // note: no delete token. Because it can be renewal\r\n      //  _burn(_tokenId);\r\n      //  delete tokens[_tokenId];\r\n      //  removeTokenInTokensOfAccount(_account, _tokenId);\r\n    }\r\n  }\r\n\r\n  function processCheatExpiredLicense(address _account, uint256 _tokenId) onlyOwner public {\r\n    require(_exists(_tokenId), \"tokenId is not available!\");\r\n    require(ownerOf(_tokenId) == _account);\r\n   \r\n    LicenseInfo storage token = tokens[_tokenId];\r\n    token.expiresOn = block.timestamp - 10;\r\n  }\r\n\r\n  function removeTokenInTokensOfAccount(address _account, uint256 _tokenId) onlyOwner internal {\r\n    for (uint256 i = 0; i < tokenIdsOfAccount[_account].length; i++) {\r\n      if (tokenIdsOfAccount[_account][i] == _tokenId) {\r\n        delete tokenIdsOfAccount[_account][i];\r\n        break;\r\n      }\r\n    }\r\n  }\r\n   \r\n  // internal methods\r\n  function _owns(address _claimant, uint256 _tokenId) internal view returns (bool) {\r\n    return ownerOf(_tokenId) == _claimant;\r\n  }\r\n}",
  "sourcePath": "C:\\Users\\Admin\\Documents\\Courses\\CNM\\2022\\ApplicationLicensing\\ApplicationLicensingWithSmartContract\\truffle\\contracts\\LicenseToken.sol",
  "compiler": {
    "name": "solc",
    "version": "0.8.14+commit.80d49f37.Emscripten.clang"
  },
  "schemaVersion": "3.4.8",
  "updatedAt": "2022-07-09T11:43:04.607Z",
  "networkType": "ethereum",
  "devdoc": {
    "kind": "dev",
    "methods": {
      "approve(address,uint256)": {
        "details": "See {IERC721-approve}."
      },
      "balanceOf(address)": {
        "details": "See {IERC721-balanceOf}."
      },
      "getApproved(uint256)": {
        "details": "See {IERC721-getApproved}."
      },
      "isApprovedForAll(address,address)": {
        "details": "See {IERC721-isApprovedForAll}."
      },
      "name()": {
        "details": "See {IERC721Metadata-name}."
      },
      "ownerOf(uint256)": {
        "details": "See {IERC721-ownerOf}."
      },
      "safeTransferFrom(address,address,uint256)": {
        "details": "See {IERC721-safeTransferFrom}."
      },
      "safeTransferFrom(address,address,uint256,bytes)": {
        "details": "See {IERC721-safeTransferFrom}."
      },
      "setApprovalForAll(address,bool)": {
        "details": "See {IERC721-setApprovalForAll}."
      },
      "supportsInterface(bytes4)": {
        "details": "See {IERC165-supportsInterface}."
      },
      "symbol()": {
        "details": "See {IERC721Metadata-symbol}."
      },
      "tokenURI(uint256)": {
        "details": "See {IERC721Metadata-tokenURI}."
      },
      "transferFrom(address,address,uint256)": {
        "details": "See {IERC721-transferFrom}."
      }
    },
    "version": 1
  },
  "userdoc": {
    "kind": "user",
    "methods": {},
    "version": 1
  }
}