{
  "contractName": "Ownable",
  "abi": [
    {
      "inputs": [],
      "stateMutability": "nonpayable",
      "type": "constructor"
    },
    {
      "inputs": [
        {
          "internalType": "address",
          "name": "newOwner",
          "type": "address"
        }
      ],
      "name": "transferOwnership",
      "outputs": [],
      "stateMutability": "nonpayable",
      "type": "function"
    }
  ],
  "bytecode": "0x608060405234801561001057600080fd5b50336000806101000a81548173ffffffffffffffffffffffffffffffffffffffff021916908373ffffffffffffffffffffffffffffffffffffffff1602179055506101ad806100606000396000f3fe608060405234801561001057600080fd5b506004361061002b5760003560e01c8063f2fde38b14610030575b600080fd5b61004a6004803603810190610045919061014a565b61004c565b005b60008054906101000a900473ffffffffffffffffffffffffffffffffffffffff1673ffffffffffffffffffffffffffffffffffffffff163373ffffffffffffffffffffffffffffffffffffffff16146100a457600080fd5b806000806101000a81548173ffffffffffffffffffffffffffffffffffffffff021916908373ffffffffffffffffffffffffffffffffffffffff16021790555050565b600080fd5b600073ffffffffffffffffffffffffffffffffffffffff82169050919050565b6000610117826100ec565b9050919050565b6101278161010c565b811461013257600080fd5b50565b6000813590506101448161011e565b92915050565b6000602082840312156101605761015f6100e7565b5b600061016e84828501610135565b9150509291505056fea2646970667358221220603c03ee60b01411aa873859a3a72651f1904f9dee7a35898feea22f787a9bf464736f6c634300080e0033",
  "immutableReferences": {},
  "source": " pragma solidity 0.8.14;\r\n\r\nimport \"@openzeppelin/contracts/token/ERC721/ERC721.sol\";\r\nimport \"@openzeppelin/contracts/utils/Counters.sol\";\r\n\r\ncontract Ownable {\r\n  address owner;\r\n   \r\n  constructor() {\r\n    owner = msg.sender;\r\n  }\r\n   \r\n  modifier onlyOwner {\r\n    require(msg.sender == owner);\r\n    _;\r\n  }\r\n   \r\n  function transferOwnership(address newOwner) onlyOwner  public {\r\n    owner = newOwner;\r\n  }\r\n}\r\n\r\ncontract LicenseToken is Ownable, ERC721 {\r\n\r\n  using Counters for Counters.Counter;\r\n  Counters.Counter private _tokenIds;\r\n\r\n  enum LicenseType {WIN, MAC}\r\n  enum LicenseState {ACTIVE, INACTIVE, EXPIRED}\r\n   \r\n  struct LicenseInfo {\r\n    LicenseType licenseType;\r\n    uint registeredOn;\r\n    uint expiresOn;\r\n    LicenseState state;\r\n    string deviceId;\r\n  }\r\n\r\n  mapping(address => LicenseInfo[]) tokensOfAccount;\r\n  mapping(address => uint256[]) tokenIdsOfAccount;\r\n\r\n  LicenseInfo[] tokens;\r\n  string public NAME = \"LicenseToken\";\r\n  string public SYMBOL = \"LTC\";\r\n\r\n  event LicenseGiven(address account, uint256 tokenId, uint registeredOn);\r\n  event LicenseActivate(address account, uint256 tokenId, uint state, uint expiresOn, string deviceId); \r\n  event LicenseRenewal(address _account, uint256 _tokenId, uint state, uint expiresOn, string deviceId);\r\n\r\n\r\n  constructor() ERC721(NAME, SYMBOL)  {}\r\n   \r\n   function transferFrom(address from, address to, uint256 tokenId) onlyOwner public virtual override {\r\n     ERC721.transferFrom(from, to, tokenId);\r\n   }\r\n\r\n  // licensing logic\r\n  function giveLicense(address _account, uint _type) onlyOwner public {\r\n    uint256 tokenId = _tokenIds.current();\r\n    _tokenIds.increment();\r\n    _mint(_account, tokenId);\r\n    LicenseInfo memory token = _createLicense(_type);\r\n    tokensOfAccount[_account].push(token);\r\n    tokenIdsOfAccount[_account].push(tokenId);\r\n    emit LicenseGiven(_account, tokenId, token.registeredOn);\r\n  }\r\n\r\n  function _createLicense(uint256 _type) onlyOwner internal returns (LicenseInfo memory) {\r\n    LicenseInfo memory token = LicenseInfo({\r\n        licenseType: LicenseType(_type),\r\n        state: LicenseState.INACTIVE,\r\n        registeredOn: block.timestamp,\r\n        expiresOn: 0,\r\n        deviceId: \"\"\r\n    });\r\n    tokens.push(token);\r\n    return token;\r\n  }\r\n\r\n  function getAllTokensOfAccount(address _account) onlyOwner public view returns (LicenseInfo[] memory) {\r\n      return tokensOfAccount[_account];\r\n  }\r\n  function getAllTokenIdsOfAccount(address _account) onlyOwner public view returns (uint256[] memory) {\r\n      return tokenIdsOfAccount[_account];\r\n  }\r\n\r\n  function getTokenInfo(address _account, uint256 _tokenId) onlyOwner public view returns (LicenseInfo memory) {\r\n    require(_exists(_tokenId), \"tokenId is not available!\");\r\n    require(ownerOf(_tokenId) == _account);\r\n    return tokens[_tokenId];\r\n  }\r\n\r\n  function _getTokenByTokenId(uint256 _tokenId) onlyOwner internal view returns (LicenseInfo storage) {\r\n    require(_exists(_tokenId), \"tokenId is not available!\");\r\n    return tokens[_tokenId];\r\n  }\r\n   \r\n\r\n  function activate(address _account, uint256 _tokenId, string memory _deviceId, uint licenseLifeTime) onlyOwner public {\r\n    require(_exists(_tokenId), \"tokenId is not available!\");\r\n    require(ownerOf(_tokenId) == _account);\r\n    LicenseInfo storage token = _getTokenByTokenId(_tokenId);\r\n    require(token.registeredOn != 0);\r\n    require(token.state == LicenseState.INACTIVE);\r\n   \r\n    token.state = LicenseState.ACTIVE;\r\n    token.expiresOn = block.timestamp + licenseLifeTime;\r\n    token.deviceId = _deviceId;\r\n    \r\n    emit LicenseActivate(_account, _tokenId, uint(token.state), token.expiresOn, token.deviceId);\r\n  }\r\n\r\n  function renewal(address _account, uint256 _tokenId, uint extensionTime) onlyOwner public {\r\n    require(_exists(_tokenId), \"tokenId is not available!\");\r\n    require(ownerOf(_tokenId) == _account);\r\n    LicenseInfo storage token = _getTokenByTokenId(_tokenId);\r\n    require(token.registeredOn != 0);\r\n    require(token.state != LicenseState.INACTIVE);\r\n   \r\n    token.state = LicenseState.ACTIVE;\r\n    token.expiresOn = token.expiresOn + extensionTime;\r\n\r\n    emit LicenseRenewal(_account, _tokenId, uint(token.state), token.expiresOn, token.deviceId);\r\n  }\r\n\r\n   \r\n  function isLicenseActive(address _account, uint256 _tokenId) public view returns (uint state){\r\n    require(_exists(_tokenId), \"tokenId is not available!\");\r\n    require(ownerOf(_tokenId) == _account);\r\n   \r\n    LicenseInfo memory token = _getTokenByTokenId(_tokenId);\r\n    if (token.expiresOn < block.timestamp && token.state == LicenseState.ACTIVE) {\r\n       return uint(LicenseState.EXPIRED);\r\n    }\r\n   \r\n    return uint(token.state);\r\n  }\r\n   \r\n  function handleExpiredLicense(address _account, uint256 _tokenId) onlyOwner public {\r\n    require(_exists(_tokenId), \"tokenId is not available!\");\r\n    require(ownerOf(_tokenId) == _account);\r\n   \r\n    LicenseInfo storage token = _getTokenByTokenId(_tokenId);\r\n    if (token.expiresOn < block.timestamp && token.state == LicenseState.ACTIVE) {\r\n      token.state = LicenseState.EXPIRED;\r\n      // note: no delete token. Because it can be renewal\r\n      //  _burn(_tokenId);\r\n      //  delete tokens[_tokenId];\r\n      //  removeTokenInTokensOfAccount(_account, _tokenId);\r\n    }\r\n  }\r\n\r\n  function removeTokenInTokensOfAccount(address _account, uint256 _tokenId) onlyOwner internal {\r\n    for (uint256 i = 0; i < tokenIdsOfAccount[_account].length; i++) {\r\n      if (tokenIdsOfAccount[_account][i] == _tokenId) {\r\n        delete tokensOfAccount[_account][i];\r\n        delete tokenIdsOfAccount[_account][i];\r\n        break;\r\n      }\r\n    }\r\n  }\r\n   \r\n  // internal methods\r\n  function _owns(address _claimant, uint256 _tokenId) internal view returns (bool) {\r\n    return ownerOf(_tokenId) == _claimant;\r\n  }\r\n}",
  "sourcePath": "C:\\Users\\Admin\\Documents\\Courses\\CNM\\2022\\ApplicationLicensing\\ApplicationLicensingWithSmartContract\\truffle\\contracts\\LicenseToken.sol",
  "compiler": {
    "name": "solc",
    "version": "0.8.14+commit.80d49f37.Emscripten.clang"
  },
  "schemaVersion": "3.4.8",
  "updatedAt": "2022-07-03T07:04:58.062Z",
  "devdoc": {
    "kind": "dev",
    "methods": {},
    "version": 1
  },
  "userdoc": {
    "kind": "user",
    "methods": {},
    "version": 1
  }
}