{
  "contractName": "LicenseToken",
  "abi": [
    {
      "inputs": [],
      "stateMutability": "nonpayable",
      "type": "constructor"
    },
    {
      "anonymous": false,
      "inputs": [
        {
          "indexed": true,
          "internalType": "address",
          "name": "owner",
          "type": "address"
        },
        {
          "indexed": true,
          "internalType": "address",
          "name": "approved",
          "type": "address"
        },
        {
          "indexed": true,
          "internalType": "uint256",
          "name": "tokenId",
          "type": "uint256"
        }
      ],
      "name": "Approval",
      "type": "event"
    },
    {
      "anonymous": false,
      "inputs": [
        {
          "indexed": true,
          "internalType": "address",
          "name": "owner",
          "type": "address"
        },
        {
          "indexed": true,
          "internalType": "address",
          "name": "operator",
          "type": "address"
        },
        {
          "indexed": false,
          "internalType": "bool",
          "name": "approved",
          "type": "bool"
        }
      ],
      "name": "ApprovalForAll",
      "type": "event"
    },
    {
      "anonymous": false,
      "inputs": [
        {
          "indexed": false,
          "internalType": "address",
          "name": "account",
          "type": "address"
        },
        {
          "indexed": false,
          "internalType": "uint256",
          "name": "tokenId",
          "type": "uint256"
        },
        {
          "indexed": false,
          "internalType": "uint256",
          "name": "state",
          "type": "uint256"
        },
        {
          "indexed": false,
          "internalType": "uint256",
          "name": "expiresOn",
          "type": "uint256"
        },
        {
          "indexed": false,
          "internalType": "string",
          "name": "deviceId",
          "type": "string"
        }
      ],
      "name": "LicenseActivate",
      "type": "event"
    },
    {
      "anonymous": false,
      "inputs": [
        {
          "indexed": false,
          "internalType": "address",
          "name": "account",
          "type": "address"
        },
        {
          "indexed": false,
          "internalType": "uint256",
          "name": "tokenId",
          "type": "uint256"
        },
        {
          "indexed": false,
          "internalType": "uint256",
          "name": "registeredOn",
          "type": "uint256"
        }
      ],
      "name": "LicenseGiven",
      "type": "event"
    },
    {
      "anonymous": false,
      "inputs": [
        {
          "indexed": false,
          "internalType": "address",
          "name": "_account",
          "type": "address"
        },
        {
          "indexed": false,
          "internalType": "uint256",
          "name": "_tokenId",
          "type": "uint256"
        },
        {
          "indexed": false,
          "internalType": "uint256",
          "name": "state",
          "type": "uint256"
        },
        {
          "indexed": false,
          "internalType": "uint256",
          "name": "expiresOn",
          "type": "uint256"
        },
        {
          "indexed": false,
          "internalType": "string",
          "name": "deviceId",
          "type": "string"
        }
      ],
      "name": "LicenseRenewal",
      "type": "event"
    },
    {
      "anonymous": false,
      "inputs": [
        {
          "indexed": true,
          "internalType": "address",
          "name": "from",
          "type": "address"
        },
        {
          "indexed": true,
          "internalType": "address",
          "name": "to",
          "type": "address"
        },
        {
          "indexed": true,
          "internalType": "uint256",
          "name": "tokenId",
          "type": "uint256"
        }
      ],
      "name": "Transfer",
      "type": "event"
    },
    {
      "inputs": [],
      "name": "NAME",
      "outputs": [
        {
          "internalType": "string",
          "name": "",
          "type": "string"
        }
      ],
      "stateMutability": "view",
      "type": "function",
      "constant": true
    },
    {
      "inputs": [],
      "name": "SYMBOL",
      "outputs": [
        {
          "internalType": "string",
          "name": "",
          "type": "string"
        }
      ],
      "stateMutability": "view",
      "type": "function",
      "constant": true
    },
    {
      "inputs": [
        {
          "internalType": "address",
          "name": "to",
          "type": "address"
        },
        {
          "internalType": "uint256",
          "name": "tokenId",
          "type": "uint256"
        }
      ],
      "name": "approve",
      "outputs": [],
      "stateMutability": "nonpayable",
      "type": "function"
    },
    {
      "inputs": [
        {
          "internalType": "address",
          "name": "owner",
          "type": "address"
        }
      ],
      "name": "balanceOf",
      "outputs": [
        {
          "internalType": "uint256",
          "name": "",
          "type": "uint256"
        }
      ],
      "stateMutability": "view",
      "type": "function",
      "constant": true
    },
    {
      "inputs": [
        {
          "internalType": "uint256",
          "name": "tokenId",
          "type": "uint256"
        }
      ],
      "name": "getApproved",
      "outputs": [
        {
          "internalType": "address",
          "name": "",
          "type": "address"
        }
      ],
      "stateMutability": "view",
      "type": "function",
      "constant": true
    },
    {
      "inputs": [
        {
          "internalType": "address",
          "name": "owner",
          "type": "address"
        },
        {
          "internalType": "address",
          "name": "operator",
          "type": "address"
        }
      ],
      "name": "isApprovedForAll",
      "outputs": [
        {
          "internalType": "bool",
          "name": "",
          "type": "bool"
        }
      ],
      "stateMutability": "view",
      "type": "function",
      "constant": true
    },
    {
      "inputs": [],
      "name": "name",
      "outputs": [
        {
          "internalType": "string",
          "name": "",
          "type": "string"
        }
      ],
      "stateMutability": "view",
      "type": "function",
      "constant": true
    },
    {
      "inputs": [
        {
          "internalType": "uint256",
          "name": "tokenId",
          "type": "uint256"
        }
      ],
      "name": "ownerOf",
      "outputs": [
        {
          "internalType": "address",
          "name": "",
          "type": "address"
        }
      ],
      "stateMutability": "view",
      "type": "function",
      "constant": true
    },
    {
      "inputs": [
        {
          "internalType": "address",
          "name": "from",
          "type": "address"
        },
        {
          "internalType": "address",
          "name": "to",
          "type": "address"
        },
        {
          "internalType": "uint256",
          "name": "tokenId",
          "type": "uint256"
        }
      ],
      "name": "safeTransferFrom",
      "outputs": [],
      "stateMutability": "nonpayable",
      "type": "function"
    },
    {
      "inputs": [
        {
          "internalType": "address",
          "name": "from",
          "type": "address"
        },
        {
          "internalType": "address",
          "name": "to",
          "type": "address"
        },
        {
          "internalType": "uint256",
          "name": "tokenId",
          "type": "uint256"
        },
        {
          "internalType": "bytes",
          "name": "data",
          "type": "bytes"
        }
      ],
      "name": "safeTransferFrom",
      "outputs": [],
      "stateMutability": "nonpayable",
      "type": "function"
    },
    {
      "inputs": [
        {
          "internalType": "address",
          "name": "operator",
          "type": "address"
        },
        {
          "internalType": "bool",
          "name": "approved",
          "type": "bool"
        }
      ],
      "name": "setApprovalForAll",
      "outputs": [],
      "stateMutability": "nonpayable",
      "type": "function"
    },
    {
      "inputs": [
        {
          "internalType": "bytes4",
          "name": "interfaceId",
          "type": "bytes4"
        }
      ],
      "name": "supportsInterface",
      "outputs": [
        {
          "internalType": "bool",
          "name": "",
          "type": "bool"
        }
      ],
      "stateMutability": "view",
      "type": "function",
      "constant": true
    },
    {
      "inputs": [],
      "name": "symbol",
      "outputs": [
        {
          "internalType": "string",
          "name": "",
          "type": "string"
        }
      ],
      "stateMutability": "view",
      "type": "function",
      "constant": true
    },
    {
      "inputs": [
        {
          "internalType": "uint256",
          "name": "tokenId",
          "type": "uint256"
        }
      ],
      "name": "tokenURI",
      "outputs": [
        {
          "internalType": "string",
          "name": "",
          "type": "string"
        }
      ],
      "stateMutability": "view",
      "type": "function",
      "constant": true
    },
    {
      "inputs": [
        {
          "internalType": "address",
          "name": "newOwner",
          "type": "address"
        }
      ],
      "name": "transferOwnership",
      "outputs": [],
      "stateMutability": "nonpayable",
      "type": "function"
    },
    {
      "inputs": [
        {
          "internalType": "address",
          "name": "from",
          "type": "address"
        },
        {
          "internalType": "address",
          "name": "to",
          "type": "address"
        },
        {
          "internalType": "uint256",
          "name": "tokenId",
          "type": "uint256"
        }
      ],
      "name": "transferFrom",
      "outputs": [],
      "stateMutability": "nonpayable",
      "type": "function"
    },
    {
      "inputs": [
        {
          "internalType": "address",
          "name": "_account",
          "type": "address"
        },
        {
          "internalType": "uint256",
          "name": "_type",
          "type": "uint256"
        }
      ],
      "name": "giveLicense",
      "outputs": [],
      "stateMutability": "nonpayable",
      "type": "function"
    },
    {
      "inputs": [
        {
          "internalType": "address",
          "name": "_account",
          "type": "address"
        }
      ],
      "name": "getAllTokensOfAccount",
      "outputs": [
        {
          "components": [
            {
              "internalType": "enum LicenseToken.LicenseType",
              "name": "licenseType",
              "type": "uint8"
            },
            {
              "internalType": "uint256",
              "name": "registeredOn",
              "type": "uint256"
            },
            {
              "internalType": "uint256",
              "name": "expiresOn",
              "type": "uint256"
            },
            {
              "internalType": "enum LicenseToken.LicenseState",
              "name": "state",
              "type": "uint8"
            },
            {
              "internalType": "string",
              "name": "deviceId",
              "type": "string"
            }
          ],
          "internalType": "struct LicenseToken.LicenseInfo[]",
          "name": "",
          "type": "tuple[]"
        }
      ],
      "stateMutability": "view",
      "type": "function",
      "constant": true
    },
    {
      "inputs": [
        {
          "internalType": "address",
          "name": "_account",
          "type": "address"
        }
      ],
      "name": "getAllTokenIdsOfAccount",
      "outputs": [
        {
          "internalType": "uint256[]",
          "name": "",
          "type": "uint256[]"
        }
      ],
      "stateMutability": "view",
      "type": "function",
      "constant": true
    },
    {
      "inputs": [
        {
          "internalType": "address",
          "name": "_account",
          "type": "address"
        },
        {
          "internalType": "uint256",
          "name": "_tokenId",
          "type": "uint256"
        }
      ],
      "name": "getTokenInfo",
      "outputs": [
        {
          "components": [
            {
              "internalType": "enum LicenseToken.LicenseType",
              "name": "licenseType",
              "type": "uint8"
            },
            {
              "internalType": "uint256",
              "name": "registeredOn",
              "type": "uint256"
            },
            {
              "internalType": "uint256",
              "name": "expiresOn",
              "type": "uint256"
            },
            {
              "internalType": "enum LicenseToken.LicenseState",
              "name": "state",
              "type": "uint8"
            },
            {
              "internalType": "string",
              "name": "deviceId",
              "type": "string"
            }
          ],
          "internalType": "struct LicenseToken.LicenseInfo",
          "name": "",
          "type": "tuple"
        }
      ],
      "stateMutability": "view",
      "type": "function",
      "constant": true
    },
    {
      "inputs": [
        {
          "internalType": "address",
          "name": "_account",
          "type": "address"
        },
        {
          "internalType": "uint256",
          "name": "_tokenId",
          "type": "uint256"
        },
        {
          "internalType": "string",
          "name": "_deviceId",
          "type": "string"
        },
        {
          "internalType": "uint256",
          "name": "licenseLifeTime",
          "type": "uint256"
        }
      ],
      "name": "activate",
      "outputs": [],
      "stateMutability": "nonpayable",
      "type": "function"
    },
    {
      "inputs": [
        {
          "internalType": "address",
          "name": "_account",
          "type": "address"
        },
        {
          "internalType": "uint256",
          "name": "_tokenId",
          "type": "uint256"
        },
        {
          "internalType": "uint256",
          "name": "extensionTime",
          "type": "uint256"
        }
      ],
      "name": "renewal",
      "outputs": [],
      "stateMutability": "nonpayable",
      "type": "function"
    },
    {
      "inputs": [
        {
          "internalType": "address",
          "name": "_account",
          "type": "address"
        },
        {
          "internalType": "uint256",
          "name": "_tokenId",
          "type": "uint256"
        }
      ],
      "name": "isLicenseActive",
      "outputs": [
        {
          "internalType": "uint256",
          "name": "state",
          "type": "uint256"
        }
      ],
      "stateMutability": "view",
      "type": "function",
      "constant": true
    },
    {
      "inputs": [
        {
          "internalType": "address",
          "name": "_account",
          "type": "address"
        },
        {
          "internalType": "uint256",
          "name": "_tokenId",
          "type": "uint256"
        }
      ],
      "name": "handleExpiredLicense",
      "outputs": [],
      "stateMutability": "nonpayable",
      "type": "function"
    }
  ],
  "bytecode": "0x60806040526040518060400160405280600c81526020017f4c6963656e7365546f6b656e0000000000000000000000000000000000000000815250600b9080519060200190620000519291906200024e565b506040518060400160405280600381526020017f4c54430000000000000000000000000000000000000000000000000000000000815250600c90805190602001906200009f9291906200024e565b50348015620000ad57600080fd5b50600b8054620000bd906200032d565b80601f0160208091040260200160405190810160405280929190818152602001828054620000eb906200032d565b80156200013c5780601f1062000110576101008083540402835291602001916200013c565b820191906000526020600020905b8154815290600101906020018083116200011e57829003601f168201915b5050505050600c805462000150906200032d565b80601f01602080910402602001604051908101604052809291908181526020018280546200017e906200032d565b8015620001cf5780601f10620001a357610100808354040283529160200191620001cf565b820191906000526020600020905b815481529060010190602001808311620001b157829003601f168201915b5050505050336000806101000a81548173ffffffffffffffffffffffffffffffffffffffff021916908373ffffffffffffffffffffffffffffffffffffffff16021790555081600190805190602001906200022c9291906200024e565b508060029080519060200190620002459291906200024e565b50505062000362565b8280546200025c906200032d565b90600052602060002090601f016020900481019282620002805760008555620002cc565b82601f106200029b57805160ff1916838001178555620002cc565b82800160010185558215620002cc579182015b82811115620002cb578251825591602001919060010190620002ae565b5b509050620002db9190620002df565b5090565b5b80821115620002fa576000816000905550600101620002e0565b5090565b7f4e487b7100000000000000000000000000000000000000000000000000000000600052602260045260246000fd5b600060028204905060018216806200034657607f821691505b6020821081036200035c576200035b620002fe565b5b50919050565b6145ad80620003726000396000f3fe608060405234801561001057600080fd5b50600436106101585760003560e01c80638c1944f6116100c3578063bbd7d2091161007c578063bbd7d209146103e7578063c87b56dd14610417578063e1721ec814610447578063e985e9c514610463578063f2fde38b14610493578063f76f8d78146104af57610158565b80638c1944f61461032757806395d89b4114610357578063a22cb46514610375578063a3a5f02f14610391578063a3f4df7e146103ad578063b88d4fde146103cb57610158565b806342842e0e1161011557806342842e0e1461022f57806348c20f3d1461024b57806350cce6921461027b578063535a114c146102975780636352211e146102c757806370a08231146102f757610158565b806301ffc9a71461015d57806306fdde031461018d578063081812fc146101ab578063095ea7b3146101db57806321ea02f9146101f757806323b872dd14610213575b600080fd5b6101776004803603810190610172919061302a565b6104cd565b6040516101849190613072565b60405180910390f35b6101956105af565b6040516101a29190613126565b60405180910390f35b6101c560048036038101906101c0919061317e565b610641565b6040516101d291906131ec565b60405180910390f35b6101f560048036038101906101f09190613233565b610687565b005b610211600480360381019061020c9190613233565b61079e565b005b61022d60048036038101906102289190613273565b6109cc565b005b61024960048036038101906102449190613273565b610a34565b005b61026560048036038101906102609190613233565b610a54565b60405161027291906132d5565b60405180910390f35b610295600480360381019061029091906132f0565b610c8e565b005b6102b160048036038101906102ac9190613343565b610e82565b6040516102be919061342e565b60405180910390f35b6102e160048036038101906102dc919061317e565b610f71565b6040516102ee91906131ec565b60405180910390f35b610311600480360381019061030c9190613343565b611022565b60405161031e91906132d5565b60405180910390f35b610341600480360381019061033c9190613343565b6110d9565b60405161034e9190613691565b60405180910390f35b61035f6112eb565b60405161036c9190613126565b60405180910390f35b61038f600480360381019061038a91906136df565b61137d565b005b6103ab60048036038101906103a69190613854565b611393565b005b6103b561159d565b6040516103c29190613126565b60405180910390f35b6103e560048036038101906103e09190613978565b61162b565b005b61040160048036038101906103fc9190613233565b61168d565b60405161040e9190613a71565b60405180910390f35b610431600480360381019061042c919061317e565b6118c6565b60405161043e9190613126565b60405180910390f35b610461600480360381019061045c9190613233565b61192e565b005b61047d60048036038101906104789190613a93565b611aee565b60405161048a9190613072565b60405180910390f35b6104ad60048036038101906104a89190613343565b611b82565b005b6104b7611c1d565b6040516104c49190613126565b60405180910390f35b60007f80ac58cd000000000000000000000000000000000000000000000000000000007bffffffffffffffffffffffffffffffffffffffffffffffffffffffff1916827bffffffffffffffffffffffffffffffffffffffffffffffffffffffff1916148061059857507f5b5e139f000000000000000000000000000000000000000000000000000000007bffffffffffffffffffffffffffffffffffffffffffffffffffffffff1916827bffffffffffffffffffffffffffffffffffffffffffffffffffffffff1916145b806105a857506105a782611cab565b5b9050919050565b6060600180546105be90613b02565b80601f01602080910402602001604051908101604052809291908181526020018280546105ea90613b02565b80156106375780601f1061060c57610100808354040283529160200191610637565b820191906000526020600020905b81548152906001019060200180831161061a57829003601f168201915b5050505050905090565b600061064c82611d15565b6005600083815260200190815260200160002060009054906101000a900473ffffffffffffffffffffffffffffffffffffffff169050919050565b600061069282610f71565b90508073ffffffffffffffffffffffffffffffffffffffff168373ffffffffffffffffffffffffffffffffffffffff1603610702576040517f08c379a00000000000000000000000000000000000000000000000000000000081526004016106f990613ba5565b60405180910390fd5b8073ffffffffffffffffffffffffffffffffffffffff16610721611d60565b73ffffffffffffffffffffffffffffffffffffffff161480610750575061074f8161074a611d60565b611aee565b5b61078f576040517f08c379a000000000000000000000000000000000000000000000000000000000815260040161078690613c37565b60405180910390fd5b6107998383611d68565b505050565b60008054906101000a900473ffffffffffffffffffffffffffffffffffffffff1673ffffffffffffffffffffffffffffffffffffffff163373ffffffffffffffffffffffffffffffffffffffff16146107f657600080fd5b60006108026007611e21565b905061080e6007611e2f565b6108188382611e45565b60006108238361201e565b9050600860008573ffffffffffffffffffffffffffffffffffffffff1673ffffffffffffffffffffffffffffffffffffffff16815260200190815260200160002081908060018154018082558091505060019003906000526020600020906005020160009091909190915060008201518160000160006101000a81548160ff021916908360018111156108b9576108b861347c565b5b0217905550602082015181600101556040820151816002015560608201518160030160006101000a81548160ff021916908360028111156108fd576108fc61347c565b5b0217905550608082015181600401908051906020019061091e929190612e88565b505050600960008573ffffffffffffffffffffffffffffffffffffffff1673ffffffffffffffffffffffffffffffffffffffff1681526020019081526020016000208290806001815401808255809150506001900390600052602060002001600090919091909150557fe64ed50a72f89416a9d4627904038ce6295f8e1ba454b256b03e922a48501f62848383602001516040516109be93929190613c57565b60405180910390a150505050565b60008054906101000a900473ffffffffffffffffffffffffffffffffffffffff1673ffffffffffffffffffffffffffffffffffffffff163373ffffffffffffffffffffffffffffffffffffffff1614610a2457600080fd5b610a2f8383836121b8565b505050565b610a4f8383836040518060200160405280600081525061162b565b505050565b6000610a5f82612218565b610a9e576040517f08c379a0000000000000000000000000000000000000000000000000000000008152600401610a9590613cda565b60405180910390fd5b8273ffffffffffffffffffffffffffffffffffffffff16610abe83610f71565b73ffffffffffffffffffffffffffffffffffffffff1614610ade57600080fd5b6000610ae983612284565b6040518060a00160405290816000820160009054906101000a900460ff166001811115610b1957610b1861347c565b5b6001811115610b2b57610b2a61347c565b5b815260200160018201548152602001600282015481526020016003820160009054906101000a900460ff166002811115610b6857610b6761347c565b5b6002811115610b7a57610b7961347c565b5b8152602001600482018054610b8e90613b02565b80601f0160208091040260200160405190810160405280929190818152602001828054610bba90613b02565b8015610c075780601f10610bdc57610100808354040283529160200191610c07565b820191906000526020600020905b815481529060010190602001808311610bea57829003601f168201915b5050505050815250509050428160400151108015610c4d575060006002811115610c3457610c3361347c565b5b81606001516002811115610c4b57610c4a61347c565b5b145b15610c6d57600280811115610c6557610c6461347c565b5b915050610c88565b80606001516002811115610c8457610c8361347c565b5b9150505b92915050565b60008054906101000a900473ffffffffffffffffffffffffffffffffffffffff1673ffffffffffffffffffffffffffffffffffffffff163373ffffffffffffffffffffffffffffffffffffffff1614610ce657600080fd5b610cef82612218565b610d2e576040517f08c379a0000000000000000000000000000000000000000000000000000000008152600401610d2590613cda565b60405180910390fd5b8273ffffffffffffffffffffffffffffffffffffffff16610d4e83610f71565b73ffffffffffffffffffffffffffffffffffffffff1614610d6e57600080fd5b6000610d7983612284565b90506000816001015403610d8c57600080fd5b60016002811115610da057610d9f61347c565b5b8160030160009054906101000a900460ff166002811115610dc457610dc361347c565b5b03610dce57600080fd5b60008160030160006101000a81548160ff02191690836002811115610df657610df561347c565b5b0217905550818160020154610e0b9190613d29565b81600201819055507faf80d106a79a9b16507f9a9abd93b8150cd7e7b07d1820cc977563b718c1091984848360030160009054906101000a900460ff166002811115610e5a57610e5961347c565b5b846002015485600401604051610e74959493929190613e14565b60405180910390a150505050565b606060008054906101000a900473ffffffffffffffffffffffffffffffffffffffff1673ffffffffffffffffffffffffffffffffffffffff163373ffffffffffffffffffffffffffffffffffffffff1614610edc57600080fd5b600960008373ffffffffffffffffffffffffffffffffffffffff1673ffffffffffffffffffffffffffffffffffffffff168152602001908152602001600020805480602002602001604051908101604052809291908181526020018280548015610f6557602002820191906000526020600020905b815481526020019060010190808311610f51575b50505050509050919050565b6000806003600084815260200190815260200160002060009054906101000a900473ffffffffffffffffffffffffffffffffffffffff169050600073ffffffffffffffffffffffffffffffffffffffff168173ffffffffffffffffffffffffffffffffffffffff1603611019576040517f08c379a000000000000000000000000000000000000000000000000000000000815260040161101090613eba565b60405180910390fd5b80915050919050565b60008073ffffffffffffffffffffffffffffffffffffffff168273ffffffffffffffffffffffffffffffffffffffff1603611092576040517f08c379a000000000000000000000000000000000000000000000000000000000815260040161108990613f4c565b60405180910390fd5b600460008373ffffffffffffffffffffffffffffffffffffffff1673ffffffffffffffffffffffffffffffffffffffff168152602001908152602001600020549050919050565b606060008054906101000a900473ffffffffffffffffffffffffffffffffffffffff1673ffffffffffffffffffffffffffffffffffffffff163373ffffffffffffffffffffffffffffffffffffffff161461113357600080fd5b600860008373ffffffffffffffffffffffffffffffffffffffff1673ffffffffffffffffffffffffffffffffffffffff168152602001908152602001600020805480602002602001604051908101604052809291908181526020016000905b828210156112e057838290600052602060002090600502016040518060a00160405290816000820160009054906101000a900460ff1660018111156111da576111d961347c565b5b60018111156111ec576111eb61347c565b5b815260200160018201548152602001600282015481526020016003820160009054906101000a900460ff1660028111156112295761122861347c565b5b600281111561123b5761123a61347c565b5b815260200160048201805461124f90613b02565b80601f016020809104026020016040519081016040528092919081815260200182805461127b90613b02565b80156112c85780601f1061129d576101008083540402835291602001916112c8565b820191906000526020600020905b8154815290600101906020018083116112ab57829003601f168201915b50505050508152505081526020019060010190611192565b505050509050919050565b6060600280546112fa90613b02565b80601f016020809104026020016040519081016040528092919081815260200182805461132690613b02565b80156113735780601f1061134857610100808354040283529160200191611373565b820191906000526020600020905b81548152906001019060200180831161135657829003601f168201915b5050505050905090565b61138f611388611d60565b8383612350565b5050565b60008054906101000a900473ffffffffffffffffffffffffffffffffffffffff1673ffffffffffffffffffffffffffffffffffffffff163373ffffffffffffffffffffffffffffffffffffffff16146113eb57600080fd5b6113f483612218565b611433576040517f08c379a000000000000000000000000000000000000000000000000000000000815260040161142a90613cda565b60405180910390fd5b8373ffffffffffffffffffffffffffffffffffffffff1661145384610f71565b73ffffffffffffffffffffffffffffffffffffffff161461147357600080fd5b600061147e84612284565b9050600081600101540361149157600080fd5b600160028111156114a5576114a461347c565b5b8160030160009054906101000a900460ff1660028111156114c9576114c861347c565b5b146114d357600080fd5b60008160030160006101000a81548160ff021916908360028111156114fb576114fa61347c565b5b0217905550814261150c9190613d29565b81600201819055508281600401908051906020019061152c929190612e88565b507f377670bd351594b29cfa84c6023c06d49c2aaa6e40357f5aca1f918ce5ae2e0485858360030160009054906101000a900460ff1660028111156115745761157361347c565b5b84600201548560040160405161158e959493929190613e14565b60405180910390a15050505050565b600b80546115aa90613b02565b80601f01602080910402602001604051908101604052809291908181526020018280546115d690613b02565b80156116235780601f106115f857610100808354040283529160200191611623565b820191906000526020600020905b81548152906001019060200180831161160657829003601f168201915b505050505081565b61163c611636611d60565b836124bc565b61167b576040517f08c379a000000000000000000000000000000000000000000000000000000000815260040161167290613fde565b60405180910390fd5b61168784848484612551565b50505050565b611695612f0e565b60008054906101000a900473ffffffffffffffffffffffffffffffffffffffff1673ffffffffffffffffffffffffffffffffffffffff163373ffffffffffffffffffffffffffffffffffffffff16146116ed57600080fd5b6116f682612218565b611735576040517f08c379a000000000000000000000000000000000000000000000000000000000815260040161172c90613cda565b60405180910390fd5b8273ffffffffffffffffffffffffffffffffffffffff1661175583610f71565b73ffffffffffffffffffffffffffffffffffffffff161461177557600080fd5b600a828154811061178957611788613ffe565b5b90600052602060002090600502016040518060a00160405290816000820160009054906101000a900460ff1660018111156117c7576117c661347c565b5b60018111156117d9576117d861347c565b5b815260200160018201548152602001600282015481526020016003820160009054906101000a900460ff1660028111156118165761181561347c565b5b60028111156118285761182761347c565b5b815260200160048201805461183c90613b02565b80601f016020809104026020016040519081016040528092919081815260200182805461186890613b02565b80156118b55780601f1061188a576101008083540402835291602001916118b5565b820191906000526020600020905b81548152906001019060200180831161189857829003601f168201915b505050505081525050905092915050565b60606118d182611d15565b60006118db6125ad565b905060008151116118fb5760405180602001604052806000815250611926565b80611905846125c4565b604051602001611916929190614069565b6040516020818303038152906040525b915050919050565b60008054906101000a900473ffffffffffffffffffffffffffffffffffffffff1673ffffffffffffffffffffffffffffffffffffffff163373ffffffffffffffffffffffffffffffffffffffff161461198657600080fd5b61198f81612218565b6119ce576040517f08c379a00000000000000000000000000000000000000000000000000000000081526004016119c590613cda565b60405180910390fd5b8173ffffffffffffffffffffffffffffffffffffffff166119ee82610f71565b73ffffffffffffffffffffffffffffffffffffffff1614611a0e57600080fd5b6000611a1982612284565b9050428160020154108015611a63575060006002811115611a3d57611a3c61347c565b5b8160030160009054906101000a900460ff166002811115611a6157611a6061347c565b5b145b15611ae957611a7182612724565b600a8281548110611a8557611a84613ffe565b5b9060005260206000209060050201600080820160006101000a81549060ff0219169055600182016000905560028201600090556003820160006101000a81549060ff0219169055600482016000611adc9190612f61565b5050611ae88383612841565b5b505050565b6000600660008473ffffffffffffffffffffffffffffffffffffffff1673ffffffffffffffffffffffffffffffffffffffff16815260200190815260200160002060008373ffffffffffffffffffffffffffffffffffffffff1673ffffffffffffffffffffffffffffffffffffffff16815260200190815260200160002060009054906101000a900460ff16905092915050565b60008054906101000a900473ffffffffffffffffffffffffffffffffffffffff1673ffffffffffffffffffffffffffffffffffffffff163373ffffffffffffffffffffffffffffffffffffffff1614611bda57600080fd5b806000806101000a81548173ffffffffffffffffffffffffffffffffffffffff021916908373ffffffffffffffffffffffffffffffffffffffff16021790555050565b600c8054611c2a90613b02565b80601f0160208091040260200160405190810160405280929190818152602001828054611c5690613b02565b8015611ca35780601f10611c7857610100808354040283529160200191611ca3565b820191906000526020600020905b815481529060010190602001808311611c8657829003601f168201915b505050505081565b60007f01ffc9a7000000000000000000000000000000000000000000000000000000007bffffffffffffffffffffffffffffffffffffffffffffffffffffffff1916827bffffffffffffffffffffffffffffffffffffffffffffffffffffffff1916149050919050565b611d1e81612218565b611d5d576040517f08c379a0000000000000000000000000000000000000000000000000000000008152600401611d5490613eba565b60405180910390fd5b50565b600033905090565b816005600083815260200190815260200160002060006101000a81548173ffffffffffffffffffffffffffffffffffffffff021916908373ffffffffffffffffffffffffffffffffffffffff160217905550808273ffffffffffffffffffffffffffffffffffffffff16611ddb83610f71565b73ffffffffffffffffffffffffffffffffffffffff167f8c5be1e5ebec7d5bd14f71427d1e84f3dd0314c0f7b2291e5b200ac8c7c3b92560405160405180910390a45050565b600081600001549050919050565b6001816000016000828254019250508190555050565b600073ffffffffffffffffffffffffffffffffffffffff168273ffffffffffffffffffffffffffffffffffffffff1603611eb4576040517f08c379a0000000000000000000000000000000000000000000000000000000008152600401611eab906140d9565b60405180910390fd5b611ebd81612218565b15611efd576040517f08c379a0000000000000000000000000000000000000000000000000000000008152600401611ef490614145565b60405180910390fd5b611f0960008383612a6e565b6001600460008473ffffffffffffffffffffffffffffffffffffffff1673ffffffffffffffffffffffffffffffffffffffff1681526020019081526020016000206000828254611f599190613d29565b92505081905550816003600083815260200190815260200160002060006101000a81548173ffffffffffffffffffffffffffffffffffffffff021916908373ffffffffffffffffffffffffffffffffffffffff160217905550808273ffffffffffffffffffffffffffffffffffffffff16600073ffffffffffffffffffffffffffffffffffffffff167fddf252ad1be2c89b69c2b068fc378daa952ba7f163c4a11628f55a4df523b3ef60405160405180910390a461201a60008383612a73565b5050565b612026612f0e565b60008054906101000a900473ffffffffffffffffffffffffffffffffffffffff1673ffffffffffffffffffffffffffffffffffffffff163373ffffffffffffffffffffffffffffffffffffffff161461207e57600080fd5b60006040518060a0016040528084600181111561209e5761209d61347c565b5b60018111156120b0576120af61347c565b5b815260200142815260200160008152602001600160028111156120d6576120d561347c565b5b8152602001604051806020016040528060008152508152509050600a81908060018154018082558091505060019003906000526020600020906005020160009091909190915060008201518160000160006101000a81548160ff021916908360018111156121475761214661347c565b5b0217905550602082015181600101556040820151816002015560608201518160030160006101000a81548160ff0219169083600281111561218b5761218a61347c565b5b021790555060808201518160040190805190602001906121ac929190612e88565b50505080915050919050565b6121c96121c3611d60565b826124bc565b612208576040517f08c379a00000000000000000000000000000000000000000000000000000000081526004016121ff90613fde565b60405180910390fd5b612213838383612a78565b505050565b60008073ffffffffffffffffffffffffffffffffffffffff166003600084815260200190815260200160002060009054906101000a900473ffffffffffffffffffffffffffffffffffffffff1673ffffffffffffffffffffffffffffffffffffffff1614159050919050565b60008060009054906101000a900473ffffffffffffffffffffffffffffffffffffffff1673ffffffffffffffffffffffffffffffffffffffff163373ffffffffffffffffffffffffffffffffffffffff16146122df57600080fd5b6122e882612218565b612327576040517f08c379a000000000000000000000000000000000000000000000000000000000815260040161231e90613cda565b60405180910390fd5b600a828154811061233b5761233a613ffe565b5b90600052602060002090600502019050919050565b8173ffffffffffffffffffffffffffffffffffffffff168373ffffffffffffffffffffffffffffffffffffffff16036123be576040517f08c379a00000000000000000000000000000000000000000000000000000000081526004016123b5906141b1565b60405180910390fd5b80600660008573ffffffffffffffffffffffffffffffffffffffff1673ffffffffffffffffffffffffffffffffffffffff16815260200190815260200160002060008473ffffffffffffffffffffffffffffffffffffffff1673ffffffffffffffffffffffffffffffffffffffff16815260200190815260200160002060006101000a81548160ff0219169083151502179055508173ffffffffffffffffffffffffffffffffffffffff168373ffffffffffffffffffffffffffffffffffffffff167f17307eab39ab6107e8899845ad3d59bd9653f200f220920489ca2b5937696c31836040516124af9190613072565b60405180910390a3505050565b6000806124c883610f71565b90508073ffffffffffffffffffffffffffffffffffffffff168473ffffffffffffffffffffffffffffffffffffffff16148061250a57506125098185611aee565b5b8061254857508373ffffffffffffffffffffffffffffffffffffffff1661253084610641565b73ffffffffffffffffffffffffffffffffffffffff16145b91505092915050565b61255c848484612a78565b61256884848484612cde565b6125a7576040517f08c379a000000000000000000000000000000000000000000000000000000000815260040161259e90614243565b60405180910390fd5b50505050565b606060405180602001604052806000815250905090565b60606000820361260b576040518060400160405280600181526020017f3000000000000000000000000000000000000000000000000000000000000000815250905061271f565b600082905060005b6000821461263d57808061262690614263565b915050600a8261263691906142da565b9150612613565b60008167ffffffffffffffff81111561265957612658613729565b5b6040519080825280601f01601f19166020018201604052801561268b5781602001600182028036833780820191505090505b5090505b60008514612718576001826126a4919061430b565b9150600a856126b3919061433f565b60306126bf9190613d29565b60f81b8183815181106126d5576126d4613ffe565b5b60200101907effffffffffffffffffffffffffffffffffffffffffffffffffffffffffffff1916908160001a905350600a8561271191906142da565b945061268f565b8093505050505b919050565b600061272f82610f71565b905061273d81600084612a6e565b612748600083611d68565b6001600460008373ffffffffffffffffffffffffffffffffffffffff1673ffffffffffffffffffffffffffffffffffffffff1681526020019081526020016000206000828254612798919061430b565b925050819055506003600083815260200190815260200160002060006101000a81549073ffffffffffffffffffffffffffffffffffffffff021916905581600073ffffffffffffffffffffffffffffffffffffffff168273ffffffffffffffffffffffffffffffffffffffff167fddf252ad1be2c89b69c2b068fc378daa952ba7f163c4a11628f55a4df523b3ef60405160405180910390a461283d81600084612a73565b5050565b60008054906101000a900473ffffffffffffffffffffffffffffffffffffffff1673ffffffffffffffffffffffffffffffffffffffff163373ffffffffffffffffffffffffffffffffffffffff161461289957600080fd5b60005b600960008473ffffffffffffffffffffffffffffffffffffffff1673ffffffffffffffffffffffffffffffffffffffff16815260200190815260200160002080549050811015612a695781600960008573ffffffffffffffffffffffffffffffffffffffff1673ffffffffffffffffffffffffffffffffffffffff168152602001908152602001600020828154811061293857612937613ffe565b5b906000526020600020015403612a5657600860008473ffffffffffffffffffffffffffffffffffffffff1673ffffffffffffffffffffffffffffffffffffffff168152602001908152602001600020818154811061299957612998613ffe565b5b9060005260206000209060050201600080820160006101000a81549060ff0219169055600182016000905560028201600090556003820160006101000a81549060ff02191690556004820160006129f09190612f61565b5050600960008473ffffffffffffffffffffffffffffffffffffffff1673ffffffffffffffffffffffffffffffffffffffff1681526020019081526020016000208181548110612a4357612a42613ffe565b5b9060005260206000200160009055612a69565b8080612a6190614263565b91505061289c565b505050565b505050565b505050565b8273ffffffffffffffffffffffffffffffffffffffff16612a9882610f71565b73ffffffffffffffffffffffffffffffffffffffff1614612aee576040517f08c379a0000000000000000000000000000000000000000000000000000000008152600401612ae5906143e2565b60405180910390fd5b600073ffffffffffffffffffffffffffffffffffffffff168273ffffffffffffffffffffffffffffffffffffffff1603612b5d576040517f08c379a0000000000000000000000000000000000000000000000000000000008152600401612b5490614474565b60405180910390fd5b612b68838383612a6e565b612b73600082611d68565b6001600460008573ffffffffffffffffffffffffffffffffffffffff1673ffffffffffffffffffffffffffffffffffffffff1681526020019081526020016000206000828254612bc3919061430b565b925050819055506001600460008473ffffffffffffffffffffffffffffffffffffffff1673ffffffffffffffffffffffffffffffffffffffff1681526020019081526020016000206000828254612c1a9190613d29565b92505081905550816003600083815260200190815260200160002060006101000a81548173ffffffffffffffffffffffffffffffffffffffff021916908373ffffffffffffffffffffffffffffffffffffffff160217905550808273ffffffffffffffffffffffffffffffffffffffff168473ffffffffffffffffffffffffffffffffffffffff167fddf252ad1be2c89b69c2b068fc378daa952ba7f163c4a11628f55a4df523b3ef60405160405180910390a4612cd9838383612a73565b505050565b6000612cff8473ffffffffffffffffffffffffffffffffffffffff16612e65565b15612e58578373ffffffffffffffffffffffffffffffffffffffff1663150b7a02612d28611d60565b8786866040518563ffffffff1660e01b8152600401612d4a94939291906144e9565b6020604051808303816000875af1925050508015612d8657506040513d601f19601f82011682018060405250810190612d83919061454a565b60015b612e08573d8060008114612db6576040519150601f19603f3d011682016040523d82523d6000602084013e612dbb565b606091505b506000815103612e00576040517f08c379a0000000000000000000000000000000000000000000000000000000008152600401612df790614243565b60405180910390fd5b805181602001fd5b63150b7a0260e01b7bffffffffffffffffffffffffffffffffffffffffffffffffffffffff1916817bffffffffffffffffffffffffffffffffffffffffffffffffffffffff191614915050612e5d565b600190505b949350505050565b6000808273ffffffffffffffffffffffffffffffffffffffff163b119050919050565b828054612e9490613b02565b90600052602060002090601f016020900481019282612eb65760008555612efd565b82601f10612ecf57805160ff1916838001178555612efd565b82800160010185558215612efd579182015b82811115612efc578251825591602001919060010190612ee1565b5b509050612f0a9190612fa1565b5090565b6040518060a0016040528060006001811115612f2d57612f2c61347c565b5b8152602001600081526020016000815260200160006002811115612f5457612f5361347c565b5b8152602001606081525090565b508054612f6d90613b02565b6000825580601f10612f7f5750612f9e565b601f016020900490600052602060002090810190612f9d9190612fa1565b5b50565b5b80821115612fba576000816000905550600101612fa2565b5090565b6000604051905090565b600080fd5b600080fd5b60007fffffffff0000000000000000000000000000000000000000000000000000000082169050919050565b61300781612fd2565b811461301257600080fd5b50565b60008135905061302481612ffe565b92915050565b6000602082840312156130405761303f612fc8565b5b600061304e84828501613015565b91505092915050565b60008115159050919050565b61306c81613057565b82525050565b60006020820190506130876000830184613063565b92915050565b600081519050919050565b600082825260208201905092915050565b60005b838110156130c75780820151818401526020810190506130ac565b838111156130d6576000848401525b50505050565b6000601f19601f8301169050919050565b60006130f88261308d565b6131028185613098565b93506131128185602086016130a9565b61311b816130dc565b840191505092915050565b6000602082019050818103600083015261314081846130ed565b905092915050565b6000819050919050565b61315b81613148565b811461316657600080fd5b50565b60008135905061317881613152565b92915050565b60006020828403121561319457613193612fc8565b5b60006131a284828501613169565b91505092915050565b600073ffffffffffffffffffffffffffffffffffffffff82169050919050565b60006131d6826131ab565b9050919050565b6131e6816131cb565b82525050565b600060208201905061320160008301846131dd565b92915050565b613210816131cb565b811461321b57600080fd5b50565b60008135905061322d81613207565b92915050565b6000806040838503121561324a57613249612fc8565b5b60006132588582860161321e565b925050602061326985828601613169565b9150509250929050565b60008060006060848603121561328c5761328b612fc8565b5b600061329a8682870161321e565b93505060206132ab8682870161321e565b92505060406132bc86828701613169565b9150509250925092565b6132cf81613148565b82525050565b60006020820190506132ea60008301846132c6565b92915050565b60008060006060848603121561330957613308612fc8565b5b60006133178682870161321e565b935050602061332886828701613169565b925050604061333986828701613169565b9150509250925092565b60006020828403121561335957613358612fc8565b5b60006133678482850161321e565b91505092915050565b600081519050919050565b600082825260208201905092915050565b6000819050602082019050919050565b6133a581613148565b82525050565b60006133b7838361339c565b60208301905092915050565b6000602082019050919050565b60006133db82613370565b6133e5818561337b565b93506133f08361338c565b8060005b8381101561342157815161340888826133ab565b9750613413836133c3565b9250506001810190506133f4565b5085935050505092915050565b6000602082019050818103600083015261344881846133d0565b905092915050565b600081519050919050565b600082825260208201905092915050565b6000819050602082019050919050565b7f4e487b7100000000000000000000000000000000000000000000000000000000600052602160045260246000fd5b600281106134bc576134bb61347c565b5b50565b60008190506134cd826134ab565b919050565b60006134dd826134bf565b9050919050565b6134ed816134d2565b82525050565b600381106135045761350361347c565b5b50565b6000819050613515826134f3565b919050565b600061352582613507565b9050919050565b6135358161351a565b82525050565b600082825260208201905092915050565b60006135578261308d565b613561818561353b565b93506135718185602086016130a9565b61357a816130dc565b840191505092915050565b600060a08301600083015161359d60008601826134e4565b5060208301516135b0602086018261339c565b5060408301516135c3604086018261339c565b5060608301516135d6606086018261352c565b50608083015184820360808601526135ee828261354c565b9150508091505092915050565b60006136078383613585565b905092915050565b6000602082019050919050565b600061362782613450565b613631818561345b565b9350836020820285016136438561346c565b8060005b8581101561367f578484038952815161366085826135fb565b945061366b8361360f565b925060208a01995050600181019050613647565b50829750879550505050505092915050565b600060208201905081810360008301526136ab818461361c565b905092915050565b6136bc81613057565b81146136c757600080fd5b50565b6000813590506136d9816136b3565b92915050565b600080604083850312156136f6576136f5612fc8565b5b60006137048582860161321e565b9250506020613715858286016136ca565b9150509250929050565b600080fd5b600080fd5b7f4e487b7100000000000000000000000000000000000000000000000000000000600052604160045260246000fd5b613761826130dc565b810181811067ffffffffffffffff821117156137805761377f613729565b5b80604052505050565b6000613793612fbe565b905061379f8282613758565b919050565b600067ffffffffffffffff8211156137bf576137be613729565b5b6137c8826130dc565b9050602081019050919050565b82818337600083830152505050565b60006137f76137f2846137a4565b613789565b90508281526020810184848401111561381357613812613724565b5b61381e8482856137d5565b509392505050565b600082601f83011261383b5761383a61371f565b5b813561384b8482602086016137e4565b91505092915050565b6000806000806080858703121561386e5761386d612fc8565b5b600061387c8782880161321e565b945050602061388d87828801613169565b935050604085013567ffffffffffffffff8111156138ae576138ad612fcd565b5b6138ba87828801613826565b92505060606138cb87828801613169565b91505092959194509250565b600067ffffffffffffffff8211156138f2576138f1613729565b5b6138fb826130dc565b9050602081019050919050565b600061391b613916846138d7565b613789565b90508281526020810184848401111561393757613936613724565b5b6139428482856137d5565b509392505050565b600082601f83011261395f5761395e61371f565b5b813561396f848260208601613908565b91505092915050565b6000806000806080858703121561399257613991612fc8565b5b60006139a08782880161321e565b94505060206139b18782880161321e565b93505060406139c287828801613169565b925050606085013567ffffffffffffffff8111156139e3576139e2612fcd565b5b6139ef8782880161394a565b91505092959194509250565b600060a083016000830151613a1360008601826134e4565b506020830151613a26602086018261339c565b506040830151613a39604086018261339c565b506060830151613a4c606086018261352c565b5060808301518482036080860152613a64828261354c565b9150508091505092915050565b60006020820190508181036000830152613a8b81846139fb565b905092915050565b60008060408385031215613aaa57613aa9612fc8565b5b6000613ab88582860161321e565b9250506020613ac98582860161321e565b9150509250929050565b7f4e487b7100000000000000000000000000000000000000000000000000000000600052602260045260246000fd5b60006002820490506001821680613b1a57607f821691505b602082108103613b2d57613b2c613ad3565b5b50919050565b7f4552433732313a20617070726f76616c20746f2063757272656e74206f776e6560008201527f7200000000000000000000000000000000000000000000000000000000000000602082015250565b6000613b8f602183613098565b9150613b9a82613b33565b604082019050919050565b60006020820190508181036000830152613bbe81613b82565b9050919050565b7f4552433732313a20617070726f76652063616c6c6572206973206e6f7420746f60008201527f6b656e206f776e6572206e6f7220617070726f76656420666f7220616c6c0000602082015250565b6000613c21603e83613098565b9150613c2c82613bc5565b604082019050919050565b60006020820190508181036000830152613c5081613c14565b9050919050565b6000606082019050613c6c60008301866131dd565b613c7960208301856132c6565b613c8660408301846132c6565b949350505050565b7f746f6b656e4964206973206e6f7420617661696c61626c652100000000000000600082015250565b6000613cc4601983613098565b9150613ccf82613c8e565b602082019050919050565b60006020820190508181036000830152613cf381613cb7565b9050919050565b7f4e487b7100000000000000000000000000000000000000000000000000000000600052601160045260246000fd5b6000613d3482613148565b9150613d3f83613148565b9250827fffffffffffffffffffffffffffffffffffffffffffffffffffffffffffffffff03821115613d7457613d73613cfa565b5b828201905092915050565b60008190508160005260206000209050919050565b60008154613da181613b02565b613dab8186613098565b94506001821660008114613dc65760018114613dd857613e0b565b60ff1983168652602086019350613e0b565b613de185613d7f565b60005b83811015613e0357815481890152600182019150602081019050613de4565b808801955050505b50505092915050565b600060a082019050613e2960008301886131dd565b613e3660208301876132c6565b613e4360408301866132c6565b613e5060608301856132c6565b8181036080830152613e628184613d94565b90509695505050505050565b7f4552433732313a20696e76616c696420746f6b656e2049440000000000000000600082015250565b6000613ea4601883613098565b9150613eaf82613e6e565b602082019050919050565b60006020820190508181036000830152613ed381613e97565b9050919050565b7f4552433732313a2061646472657373207a65726f206973206e6f74206120766160008201527f6c6964206f776e65720000000000000000000000000000000000000000000000602082015250565b6000613f36602983613098565b9150613f4182613eda565b604082019050919050565b60006020820190508181036000830152613f6581613f29565b9050919050565b7f4552433732313a2063616c6c6572206973206e6f7420746f6b656e206f776e6560008201527f72206e6f7220617070726f766564000000000000000000000000000000000000602082015250565b6000613fc8602e83613098565b9150613fd382613f6c565b604082019050919050565b60006020820190508181036000830152613ff781613fbb565b9050919050565b7f4e487b7100000000000000000000000000000000000000000000000000000000600052603260045260246000fd5b600081905092915050565b60006140438261308d565b61404d818561402d565b935061405d8185602086016130a9565b80840191505092915050565b60006140758285614038565b91506140818284614038565b91508190509392505050565b7f4552433732313a206d696e7420746f20746865207a65726f2061646472657373600082015250565b60006140c3602083613098565b91506140ce8261408d565b602082019050919050565b600060208201905081810360008301526140f2816140b6565b9050919050565b7f4552433732313a20746f6b656e20616c7265616479206d696e74656400000000600082015250565b600061412f601c83613098565b915061413a826140f9565b602082019050919050565b6000602082019050818103600083015261415e81614122565b9050919050565b7f4552433732313a20617070726f766520746f2063616c6c657200000000000000600082015250565b600061419b601983613098565b91506141a682614165565b602082019050919050565b600060208201905081810360008301526141ca8161418e565b9050919050565b7f4552433732313a207472616e7366657220746f206e6f6e20455243373231526560008201527f63656976657220696d706c656d656e7465720000000000000000000000000000602082015250565b600061422d603283613098565b9150614238826141d1565b604082019050919050565b6000602082019050818103600083015261425c81614220565b9050919050565b600061426e82613148565b91507fffffffffffffffffffffffffffffffffffffffffffffffffffffffffffffffff82036142a05761429f613cfa565b5b600182019050919050565b7f4e487b7100000000000000000000000000000000000000000000000000000000600052601260045260246000fd5b60006142e582613148565b91506142f083613148565b925082614300576142ff6142ab565b5b828204905092915050565b600061431682613148565b915061432183613148565b92508282101561433457614333613cfa565b5b828203905092915050565b600061434a82613148565b915061435583613148565b925082614365576143646142ab565b5b828206905092915050565b7f4552433732313a207472616e736665722066726f6d20696e636f72726563742060008201527f6f776e6572000000000000000000000000000000000000000000000000000000602082015250565b60006143cc602583613098565b91506143d782614370565b604082019050919050565b600060208201905081810360008301526143fb816143bf565b9050919050565b7f4552433732313a207472616e7366657220746f20746865207a65726f2061646460008201527f7265737300000000000000000000000000000000000000000000000000000000602082015250565b600061445e602483613098565b915061446982614402565b604082019050919050565b6000602082019050818103600083015261448d81614451565b9050919050565b600081519050919050565b600082825260208201905092915050565b60006144bb82614494565b6144c5818561449f565b93506144d58185602086016130a9565b6144de816130dc565b840191505092915050565b60006080820190506144fe60008301876131dd565b61450b60208301866131dd565b61451860408301856132c6565b818103606083015261452a81846144b0565b905095945050505050565b60008151905061454481612ffe565b92915050565b6000602082840312156145605761455f612fc8565b5b600061456e84828501614535565b9150509291505056fea2646970667358221220c84648a5863adc3e359784e4031da246df8af4bc5bba1816f4981b17670ae4dc64736f6c634300080e0033",
  "immutableReferences": {},
  "source": " pragma solidity 0.8.14;\r\n\r\nimport \"@openzeppelin/contracts/token/ERC721/ERC721.sol\";\r\nimport \"@openzeppelin/contracts/utils/Counters.sol\";\r\n\r\ncontract Ownable {\r\n  address owner;\r\n   \r\n  constructor() {\r\n    owner = msg.sender;\r\n  }\r\n   \r\n  modifier onlyOwner {\r\n    require(msg.sender == owner);\r\n    _;\r\n  }\r\n   \r\n  function transferOwnership(address newOwner) onlyOwner  public {\r\n    owner = newOwner;\r\n  }\r\n}\r\n\r\ncontract LicenseToken is Ownable, ERC721 {\r\n\r\n  using Counters for Counters.Counter;\r\n  Counters.Counter private _tokenIds;\r\n\r\n  enum LicenseType {WIN, MAC}\r\n  enum LicenseState {ACTIVE, INACTIVE, EXPIRED}\r\n   \r\n  struct LicenseInfo {\r\n    LicenseType licenseType;\r\n    uint registeredOn;\r\n    uint expiresOn;\r\n    LicenseState state;\r\n    string deviceId;\r\n  }\r\n\r\n  mapping(address => LicenseInfo[]) tokensOfAccount;\r\n  mapping(address => uint256[]) tokenIdsOfAccount;\r\n\r\n  LicenseInfo[] tokens;\r\n  string public NAME = \"LicenseToken\";\r\n  string public SYMBOL = \"LTC\";\r\n\r\n  event LicenseGiven(address account, uint256 tokenId, uint registeredOn);\r\n  event LicenseActivate(address account, uint256 tokenId, uint state, uint expiresOn, string deviceId); \r\n  event LicenseRenewal(address _account, uint256 _tokenId, uint state, uint expiresOn, string deviceId);\r\n\r\n  constructor() ERC721(NAME, SYMBOL)  {}\r\n   \r\n   function transferFrom(address from, address to, uint256 tokenId) onlyOwner public virtual override {\r\n     ERC721.transferFrom(from, to, tokenId);\r\n   }\r\n\r\n  // licensing logic\r\n  function giveLicense(address _account, uint _type) onlyOwner public {\r\n    uint256 tokenId = _tokenIds.current();\r\n    _tokenIds.increment();\r\n    _mint(_account, tokenId);\r\n    LicenseInfo memory token = _createLicense(_type);\r\n    tokensOfAccount[_account].push(token);\r\n    tokenIdsOfAccount[_account].push(tokenId);\r\n    emit LicenseGiven(_account, tokenId, token.registeredOn);\r\n  }\r\n\r\n  function _createLicense(uint256 _type) onlyOwner internal returns (LicenseInfo memory) {\r\n    LicenseInfo memory token = LicenseInfo({\r\n        licenseType: LicenseType(_type),\r\n        state: LicenseState.INACTIVE,\r\n        registeredOn: block.timestamp,\r\n        expiresOn: 0,\r\n        deviceId: \"\"\r\n    });\r\n    tokens.push(token);\r\n    return token;\r\n  }\r\n\r\n  function getAllTokensOfAccount(address _account) onlyOwner public view returns (LicenseInfo[] memory) {\r\n      return tokensOfAccount[_account];\r\n  }\r\n  function getAllTokenIdsOfAccount(address _account) onlyOwner public view returns (uint256[] memory) {\r\n      return tokenIdsOfAccount[_account];\r\n  }\r\n\r\n  function getTokenInfo(address _account, uint256 _tokenId) onlyOwner public view returns (LicenseInfo memory) {\r\n    require(_exists(_tokenId), \"tokenId is not available!\");\r\n    require(ownerOf(_tokenId) == _account);\r\n    return tokens[_tokenId];\r\n  }\r\n\r\n  function _getTokenByTokenId(uint256 _tokenId) onlyOwner internal view returns (LicenseInfo storage) {\r\n    require(_exists(_tokenId), \"tokenId is not available!\");\r\n    return tokens[_tokenId];\r\n  }\r\n   \r\n\r\n  function activate(address _account, uint256 _tokenId, string memory _deviceId, uint licenseLifeTime) onlyOwner public {\r\n    require(_exists(_tokenId), \"tokenId is not available!\");\r\n    require(ownerOf(_tokenId) == _account);\r\n    LicenseInfo storage token = _getTokenByTokenId(_tokenId);\r\n    require(token.registeredOn != 0);\r\n    require(token.state == LicenseState.INACTIVE);\r\n   \r\n    token.state = LicenseState.ACTIVE;\r\n    token.expiresOn = block.timestamp + licenseLifeTime;\r\n    token.deviceId = _deviceId;\r\n    \r\n    emit LicenseActivate(_account, _tokenId, uint(token.state), token.expiresOn, token.deviceId);\r\n  }\r\n\r\n  function renewal(address _account, uint256 _tokenId, uint extensionTime) onlyOwner public {\r\n    require(_exists(_tokenId), \"tokenId is not available!\");\r\n    require(ownerOf(_tokenId) == _account);\r\n    LicenseInfo storage token = _getTokenByTokenId(_tokenId);\r\n    require(token.registeredOn != 0);\r\n    require(token.state != LicenseState.INACTIVE);\r\n   \r\n    token.state = LicenseState.ACTIVE;\r\n    token.expiresOn = token.expiresOn + extensionTime;\r\n\r\n    emit LicenseRenewal(_account, _tokenId, uint(token.state), token.expiresOn, token.deviceId);\r\n  }\r\n\r\n   \r\n  function isLicenseActive(address _account, uint256 _tokenId) public view returns (uint state){\r\n    require(_exists(_tokenId), \"tokenId is not available!\");\r\n    require(ownerOf(_tokenId) == _account);\r\n   \r\n    LicenseInfo memory token = _getTokenByTokenId(_tokenId);\r\n    if (token.expiresOn < block.timestamp && token.state == LicenseState.ACTIVE) {\r\n       return uint(LicenseState.EXPIRED);\r\n    }\r\n   \r\n    return uint(token.state);\r\n  }\r\n   \r\n  function handleExpiredLicense(address _account, uint256 _tokenId) onlyOwner public {\r\n    require(_exists(_tokenId), \"tokenId is not available!\");\r\n    require(ownerOf(_tokenId) == _account);\r\n   \r\n    LicenseInfo storage token = _getTokenByTokenId(_tokenId);\r\n    if (token.expiresOn < block.timestamp && token.state == LicenseState.ACTIVE) {\r\n       _burn(_tokenId);\r\n       delete tokens[_tokenId];\r\n       removeTokenInTokensOfAccount(_account, _tokenId);\r\n    }\r\n  }\r\n\r\n  function removeTokenInTokensOfAccount(address _account, uint256 _tokenId) onlyOwner internal {\r\n    for (uint256 i = 0; i < tokenIdsOfAccount[_account].length; i++) {\r\n      if (tokenIdsOfAccount[_account][i] == _tokenId) {\r\n        delete tokensOfAccount[_account][i];\r\n        delete tokenIdsOfAccount[_account][i];\r\n        break;\r\n      }\r\n    }\r\n  }\r\n   \r\n  // internal methods\r\n  function _owns(address _claimant, uint256 _tokenId) internal view returns (bool) {\r\n    return ownerOf(_tokenId) == _claimant;\r\n  }\r\n}",
  "sourcePath": "C:\\Users\\Admin\\Documents\\Courses\\CNM\\2022\\ApplicationLicensing\\ApplicationLicensingWithSmartContract\\truffle\\contracts\\LicenseToken.sol",
  "compiler": {
    "name": "solc",
    "version": "0.8.14+commit.80d49f37.Emscripten.clang"
  },
  "schemaVersion": "3.4.8",
  "updatedAt": "2022-07-02T18:40:02.180Z",
  "networkType": "ethereum",
  "devdoc": {
    "kind": "dev",
    "methods": {
      "approve(address,uint256)": {
        "details": "See {IERC721-approve}."
      },
      "balanceOf(address)": {
        "details": "See {IERC721-balanceOf}."
      },
      "getApproved(uint256)": {
        "details": "See {IERC721-getApproved}."
      },
      "isApprovedForAll(address,address)": {
        "details": "See {IERC721-isApprovedForAll}."
      },
      "name()": {
        "details": "See {IERC721Metadata-name}."
      },
      "ownerOf(uint256)": {
        "details": "See {IERC721-ownerOf}."
      },
      "safeTransferFrom(address,address,uint256)": {
        "details": "See {IERC721-safeTransferFrom}."
      },
      "safeTransferFrom(address,address,uint256,bytes)": {
        "details": "See {IERC721-safeTransferFrom}."
      },
      "setApprovalForAll(address,bool)": {
        "details": "See {IERC721-setApprovalForAll}."
      },
      "supportsInterface(bytes4)": {
        "details": "See {IERC165-supportsInterface}."
      },
      "symbol()": {
        "details": "See {IERC721Metadata-symbol}."
      },
      "tokenURI(uint256)": {
        "details": "See {IERC721Metadata-tokenURI}."
      },
      "transferFrom(address,address,uint256)": {
        "details": "See {IERC721-transferFrom}."
      }
    },
    "version": 1
  },
  "userdoc": {
    "kind": "user",
    "methods": {},
    "version": 1
  }
}