{
  "contractName": "owned",
  "abi": [
    {
      "inputs": [],
      "stateMutability": "nonpayable",
      "type": "constructor"
    },
    {
      "inputs": [
        {
          "internalType": "address",
          "name": "newOwner",
          "type": "address"
        }
      ],
      "name": "transferOwnership",
      "outputs": [],
      "stateMutability": "nonpayable",
      "type": "function"
    }
  ],
  "bytecode": "0x608060405234801561001057600080fd5b50336000806101000a81548173ffffffffffffffffffffffffffffffffffffffff021916908373ffffffffffffffffffffffffffffffffffffffff1602179055506101ad806100606000396000f3fe608060405234801561001057600080fd5b506004361061002b5760003560e01c8063f2fde38b14610030575b600080fd5b61004a6004803603810190610045919061014a565b61004c565b005b60008054906101000a900473ffffffffffffffffffffffffffffffffffffffff1673ffffffffffffffffffffffffffffffffffffffff163373ffffffffffffffffffffffffffffffffffffffff16146100a457600080fd5b806000806101000a81548173ffffffffffffffffffffffffffffffffffffffff021916908373ffffffffffffffffffffffffffffffffffffffff16021790555050565b600080fd5b600073ffffffffffffffffffffffffffffffffffffffff82169050919050565b6000610117826100ec565b9050919050565b6101278161010c565b811461013257600080fd5b50565b6000813590506101448161011e565b92915050565b6000602082840312156101605761015f6100e7565b5b600061016e84828501610135565b9150509291505056fea2646970667358221220c8c41c490cbba0bfa0630201a0c1aabd830b2614fe55ae0e4e9ce8909e7abc1e64736f6c634300080e0033",
  "immutableReferences": {},
  "source": " pragma solidity 0.8.14;\r\n\r\n\r\ncontract owned {\r\n  address owner;\r\n   \r\n  constructor() {\r\n    owner = msg.sender;\r\n  }\r\n   \r\n  modifier onlyOwner {\r\n    require(msg.sender == owner);\r\n    _;\r\n  }\r\n   \r\n  function transferOwnership(address newOwner) onlyOwner  public {\r\n    owner = newOwner;\r\n  }\r\n}\r\n   \r\ncontract LicenseToken is owned {\r\n  enum LicenseType {WIN, MAC}\r\n  enum LicenseState {ACTIVE, INACTIVE, EXPIRED}\r\n   \r\n  uint constant LICENSE_LIFE_TIME = 30 days;\r\n   \r\n  struct LicenseInfo {\r\n    LicenseType licenseType;\r\n    uint registeredOn;\r\n    uint expiresOn;\r\n    LicenseState state;\r\n    string deviceId;\r\n  }\r\n   \r\n  LicenseInfo[] tokens;\r\n   \r\n  mapping (uint256 => address) public tokenIndexToOwner;\r\n  mapping (address => uint256) ownershipTokenCount;\r\n  mapping (uint256 => address) public tokenIndexToApproved;\r\n   \r\n  event LicenseGiven(address account, uint256 tokenId);\r\n  event Transfer(address from, address to, uint256 tokenId);\r\n  event Approval(address owner, address approved, uint256 tokenId);\r\n   \r\n  constructor()  {\r\n  }\r\n   \r\n  // ERC-721 functions\r\n  function totalSupply() public view returns (uint256 total) {\r\n    return tokens.length;\r\n  }\r\n   \r\n  function balanceOf(address _account) public view returns (uint256 balance) {\r\n     return ownershipTokenCount[_account];\r\n  }\r\n   \r\n  function ownerOf(uint256 _tokenId) public view returns (address owner) {\r\n    owner = tokenIndexToOwner[_tokenId];\r\n    require(owner != address(0));\r\n   \r\n    return owner;\r\n  }\r\n   \r\n  function transferFrom(address _from, address _to, uint256 _tokenId) onlyOwner public {\r\n    require(_to != address(0));\r\n    require(_to != address(this));\r\n    require(_owns(_from, _tokenId));\r\n   \r\n    _transfer(_from, _to, _tokenId);\r\n  }\r\n   \r\n  function approve(address _to, uint256 _tokenId) public {\r\n    require(_owns(msg.sender, _tokenId));\r\n    tokenIndexToApproved[_tokenId] = _to;\r\n    emit Approval(tokenIndexToOwner[_tokenId], tokenIndexToApproved[_tokenId], _tokenId);\r\n  }\r\n   \r\n  function safeTransferFrom(address _from, address _to, uint256 _tokenId) public {\r\n    // method is not implemented because it is not needed for licensing logic\r\n  }\r\n   \r\n  function safeTransferFrom(address _from, address _to, uint256 _tokenId, bytes memory data) public {\r\n    // method is not implemented because it is not needed for licensing logic\r\n  }\r\n   \r\n  function setApprovalForAll(address _operator, bool _approved) public  pure{\r\n    // method is not implemented because it is not needed for licensing logic\r\n  }\r\n   \r\n  function getApproved(uint256 _tokenId) public pure returns (address) {\r\n    // method is not implemented because it is not needed for licensing logic\r\n    return address(0);\r\n  }\r\n   \r\n  function isApprovedForAll(address _owner, address _operator) public pure returns (bool) {\r\n    // method is not implemented because it is not needed for licensing logic\r\n    return false;\r\n  }\r\n   \r\n  // licensing logic\r\n  function giveLicense(address _account, uint _type) onlyOwner public {\r\n    uint256 tokenId = _mint(_account, _type);\r\n    emit LicenseGiven(_account, tokenId);\r\n  }\r\n   \r\n  function activate(uint _tokenId, string memory _deviceId) onlyOwner public {\r\n    LicenseInfo storage token = tokens[_tokenId];\r\n    require(token.registeredOn != 0);\r\n    require(token.state == LicenseState.INACTIVE);\r\n   \r\n    token.state = LicenseState.ACTIVE;\r\n    token.expiresOn = block.timestamp + LICENSE_LIFE_TIME;\r\n    token.deviceId = _deviceId;\r\n  }\r\n   \r\n  function burn(address _account, uint _tokenId) onlyOwner public {\r\n    require(tokenIndexToOwner[_tokenId] == _account);\r\n   \r\n    ownershipTokenCount[_account]--;\r\n    delete tokenIndexToOwner[_tokenId];\r\n    delete tokens[_tokenId];\r\n    delete tokenIndexToApproved[_tokenId];\r\n  }\r\n   \r\n  function isLicenseActive(address _account, uint256 _tokenId) public view returns (uint state){\r\n    require(tokenIndexToOwner[_tokenId] == _account);\r\n   \r\n    LicenseInfo memory token = tokens[_tokenId];\r\n    if (token.expiresOn < block.timestamp && token.state == LicenseState.ACTIVE) {\r\n       return uint(LicenseState.EXPIRED);\r\n    }\r\n   \r\n    return uint(token.state);\r\n  }\r\n   \r\n  function handleExpiredLicense(address _account, uint256 _tokenId) onlyOwner public {\r\n    require(tokenIndexToOwner[_tokenId] == _account);\r\n   \r\n    LicenseInfo storage token = tokens[_tokenId];\r\n    if (token.expiresOn < block.timestamp && token.state == LicenseState.ACTIVE) {\r\n       burn(_account, _tokenId);\r\n    }\r\n  }\r\n   \r\n  // internal methods\r\n  function _owns(address _claimant, uint256 _tokenId) internal view returns (bool) {\r\n    return tokenIndexToOwner[_tokenId] == _claimant;\r\n  }\r\n   \r\n  function _mint(address _account, uint _type) onlyOwner internal returns (uint256 tokenId) {\r\n    // create new token\r\n    LicenseInfo memory token = LicenseInfo({\r\n        licenseType: LicenseType(_type),\r\n        state: LicenseState.INACTIVE,\r\n        registeredOn: block.timestamp,\r\n        expiresOn: 0,\r\n        deviceId: \"\"\r\n    });\r\n    tokens.push(token);\r\n    uint id= tokens.length - 1;\r\n    _transfer(address(0), _account, id);\r\n    return id;\r\n  }\r\n   \r\n  function _transfer(address _from, address _to, uint256 _tokenId) internal {\r\n   ownershipTokenCount[_to]++;\r\n   tokenIndexToOwner[_tokenId] = _to;\r\n   \r\n   if (_from != address(0)) {\r\n     ownershipTokenCount[_from]--;\r\n     delete tokenIndexToApproved[_tokenId];\r\n   }\r\n   emit Transfer(_from, _to, _tokenId);\r\n  }\r\n}",
  "sourcePath": "C:\\Users\\Admin\\Documents\\Courses\\CNM\\2022\\ApplicationLicensing\\ApplicationLicensingWithSmartContract\\truffle\\contracts\\LicenseToken.sol",
  "compiler": {
    "name": "solc",
    "version": "0.8.14+commit.80d49f37.Emscripten.clang"
  },
  "schemaVersion": "3.4.8",
  "updatedAt": "2022-07-02T16:02:13.530Z",
  "devdoc": {
    "kind": "dev",
    "methods": {},
    "version": 1
  },
  "userdoc": {
    "kind": "user",
    "methods": {},
    "version": 1
  }
}